:020000040800F2
:100000005026002091010008B3140008630A00087C
:10001000B11400088B040008EF160008000000006F
:10002000000000000000000000000000451600086D
:10003000A504000800000000B514000847160008D9
:10004000AB010008AB010008AB010008AB010008E0
:10005000AB010008AB010008AB010008AB010008D0
:10006000AB010008AB010008AB010008AB010008C0
:10007000AB010008AB010008AB010008AB010008B0
:10008000AB010008AB010008AB010008AB010008A0
:10009000AB010008AB010008AB010008AB01000890
:1000A000AB010008AB010008AB010008AB01000880
:1000B000AB010008AB01000800000000AB01000824
:1000C000AB0100080000000000000000AB010008C8
:1000D00000000000AB010008AB01000800000000B8
:1000E000AB010008AB010008AB01000800F002F80A
:1000F00000F03FF80AA090E8000C82448344AAF183
:100100000107DA4501D100F034F8AFF2090EBAE880
:100110000F0013F0010F18BFFB1A43F0010318473B
:10012000AC740000CC740000103A24BF78C878C1C9
:10013000FAD8520724BF30C830C144BF04680C60ED
:10014000704700000023002400250026103A28BF35
:1001500078C1FBD8520728BF30C148BF0B60704739
:10016000782900F08380002070471FB51FBD10B5AF
:1001700010BD00F050F91146FFF7F7FF01F09CFBAE
:1001800000F06EF903B4FFF7F2FF03BC00F076F95C
:100190000948804709480047FEE7FEE7FEE7FEE71B
:1001A000FEE7FEE7FEE7FEE7FEE7FEE70448054957
:1001B000054A064B70470000ED160008ED000008E8
:1001C000001C0020502600200020002000200020DD
:1001D0000FB41CB50C0007AA009001D02044401EAB
:1001E000074B7B4469460190069800F0F4F8002C18
:1001F00003D06946002000F001F91CBC5DF814FB37
:10020000210200002DE9F0410E4604460020206244
:100210002046E168884730B3252805D0D4E901217C
:100220009047206A401CF2E7E16820460027884793
:10023000050018D0A5F14100192802D820354FF447
:1002400000673246294620462760FFF789FF40B104
:10025000012804D0F61D26F007060836D8E7361D1B
:10026000D6E72846DAE7206ABDE8F08170B5044693
:100270000D4621461068AFF300802188090502D59C
:100280000F4A7A4402E00E4A7A440E32002104F109
:10029000240305E000F00F060009965D5E54491C3A
:1002A0000028F7D120780023000704D5702D02D054
:1002B00009B1022311322046BDE8704000F02CB88D
:1002C0001B7300004FF0000200B51346944696469B
:1002D000203922BFA0E80C50A0E80C50B1F1200159
:1002E000BFF4F7AF090728BFA0E80C5048BF0CC007
:1002F0005DF804EB890028BF40F8042B08BF704765
:1003000048BF20F8022B11F0804F18BF00F8012BD6
:1003100070477047704770472DE9F0470D46994682
:100320009246044600F124080168880604D5E06975
:1003300021F01001216000E00120A84201DD471BEF
:1003400000E00027A1697A1902EB0900081AA061F0
:100350002078C00602D42046AFF30080002608E0D3
:10036000D4E901211AF806009047206A401C761C47
:1003700020624E45F4DB2078C0060AD52046AFF354
:10038000008006E0D4E9012130209047206A401C1B
:100390002062381EA7F10107F4DC07E0D4E901214F
:1003A00018F805009047206A401C2062281EA5F11D
:1003B0000105F3DC2046AFF300802078000602D56B
:1003C0000220BDE8F0870120FBE7000001694A1C1C
:1003D00002610878704700B58FB0CDE90131002186
:1003E000059105497944CDE9031011466846FFF7A8
:1003F00009FF0FB000BD0000E5FFFFFF0A6802F82B
:10040000010B0A607047D1E900239A4202D2531CC3
:100410000B6010707047754600F02CF8AE46050072
:100420006946534620F00700854618B020B5FFF70F
:10043000BDFEBDE820404FF000064FF000074FF032
:1004400000084FF0000B21F00701AC46ACE8C009F2
:10045000ACE8C009ACE8C009ACE8C0098D467047FB
:1004600010B50446AFF300802046BDE81040FFF70A
:1004700089BE0000004870479C1B002001491820DD
:10048000ABBEFEE7260002007047FEE700200449ED
:10049000FF224FF4D8530A54401C9842FBDB7047AC
:1004A00034000020704772B6FEE7000070B50446C5
:1004B00000F0EEF80546601C02D0044800780444C1
:1004C00000F0E6F8401BA042FAD370BD24000020E3
:1004D0002DE9F84FDFF89C91002409F1040A0AF194
:1004E000040B23460F270BF1040EBBE00125A540AA
:1004F0002A40AA4276D1DFF880C14E68A6EB0C08EC
:1005000066452BD00DDC032E34D005DC36B3012E2E
:1005100019D0022E2FD11BE0112E16D0122E2AD167
:1005200019E0B8F5881F19D006DCB8F5803F15D062
:10053000B8F5801F1FD111E0B8F5001F0ED0B8F537
:10054000041F18D10AE0CB6815E0CB681B1D12E030
:10055000CB6808330FE0CB680C330CE08B682BB111
:10056000012B4FF0080303D0456104E0042302E0AF
:10057000056100E00023FF2A01D8064601E000F1F2
:1005800004064FEA840501D9A5F12005D6F80080BC
:1005900007FA05FC28EA0C0803FA05F548EA0508FD
:1005A000C6F800804D68ED005BD5344DAE6946F06D
:1005B0000106AE61AD6924F0030605F00105009562
:1005C0002F4D06EB050CDCF80850A607360F07FA8E
:1005D00006F825EA0805DFF8AC80404503D14FF066
:1005E000000810E03DE0DFF8A080404502D14FF068
:1005F000010808E0DFF89480404502D14FF002087E
:1006000001E04FF0030808FA06F848EA0508CCF8BC
:1006100008804D68D9F80060ED034D4601D51643BA
:1006200000E096432E604D68DAF80060AD03554651
:1006300001D5164300E096432E604D68DBF800605C
:10064000ED025D4601D5164300E096432E604D68ED
:10065000DEF80060AD02754601D5164300E0964312
:100660002E60641C0A6832FA04F57FF43FAFBDE8DF
:10067000F88F00000004014000001110001002403B
:100680000000014000080140000C01400010014042
:1006900001488068704700002400002002488168FB
:1006A000027811448160704724000020074810B58B
:1006B000016841F010010160032000F067F80F208D
:1006C00000F006F800F024F8002010BD00200240E1
:1006D00070B50D4D04464FF47A712878B1FBF0F0F7
:1006E0000A490968B1FBF0F000F0A7F948B9102CED
:1006F00007D200222146501E00F028F800206C602E
:1007000070BD012070BD00002400002030000020DA
:100710000C4808B5816941F001018161816901F0EE
:1007200001010091C16941F08051C161C06900F0CF
:10073000805000900448416821F0E06141F0007170
:10074000416008BD0010024000000140F0B40E4BB3
:100750001B680C46C3F30223C3F10705042D00D91F
:100760000425191D072901D2002300E0DB1E012604
:1007700006FA05F1491E214099409E40761E16401A
:100780003143F0BC00F0C4BF0CED00E0064900F0BE
:10079000070208684FF6FF03184040EA0220034AA8
:1007A00010430860704700000CED00E00000FA05FF
:1007B00070B5040009D0606A002540B1256165610B
:1007C000A56294F8510040B10CE0012070BD606852
:1007D000B0F5827FF4D0E561F2E784F8505020460E
:1007E00000F040F8022084F851002068016821F0F0
:1007F00040010160A088218900F4827001F4044165
:100800000843A18901F400610843217C01F0020141
:100810000843217D01F001010843218B01F400719F
:100820000843217F01F03801084394F8201001F0BB
:1008300080010843218D01F40051084321680860BC
:10084000A069042101EA1040216848602068C1695C
:1008500021F40061C1616565012084F85100002028
:1008600070BD000000B585B000210091019102919A
:10087000039100681349884221D11348816941F4EA
:1008800080518161816901F480510491816941F055
:10089000080181618069694600F008000490282001
:1008A000009002200190032003900848FFF710FEFB
:1008B0000748416841F0E06141F00101416005B045
:1008C00000BD00000030014000100240000C01405B
:1008D000000001402DE9F84F044690F85000002731
:1008E0001D461646894601280DD04FF0010B84F8AD
:1008F00050B0FFF7CDFE804694F85100BA4601286B
:1009000004D0022793E00220BDE8F88FB9F1000F70
:1009100073D0002E71D0032084F85100C4F854A085
:10092000C4F83090A686E686C4F838A0A4F83CA0A7
:10093000A4F83EA0C4F844A0C4F840A0A068B0F554
:10094000004F09D12068016821F040010160206852
:10095000016841F48041016020680168490603D4C0
:10096000016841F040010160E068B0F5006F606827
:1009700003D030B3012E24D041E008B1012E1CD1A8
:10098000206B21680088C86006E0206881688907BC
:1009900009D5216B0988C160206B801C2063E08E23
:1009A000401EE08609E0FFF773FEA0EB0800A842B6
:1009B00002D3681C01D031E07DB3E08E0028E4D181
:1009C00020E0206B21680078087306E020688168C9
:1009D000890709D5216B09780173206B401C2063BE
:1009E000E08E401EE0860AE0FFF752FEA0EB080012
:1009F000A84203D3681C02D010E017E06DB1E08E6E
:100A00000028E3D142462946204600F0AFFD08B158
:100A100020206065A06818B106E0FFE7032706E024
:100A20002068C16880680090606D00B1012784F87B
:100A300051B084F850A0384666E710B5401EB0F1BA
:100A4000807F01D3012010BD4FF0E02460610F21B1
:100A5000601700F05DFE0020A061072020610020EB
:100A600010BDFEE710B5112000F042FE0520FFF793
:100A70001DFD262000F03CFE042000F041FEB120C8
:100A800000F036FE0B2000F03BFE142000F038FE94
:100A9000C02000F02DFE082000F032FE052000F0FE
:100AA0002FFEC12000F024FE022000F029FEC52008
:100AB00000F01EFE442000F023FE482000F020FE3F
:100AC000C72000F015FEC22000F01AFE3A2000F008
:100AD0000FFE052000F014FE2A2000F009FE002081
:100AE00000F00EFE002000F00BFE002000F008FEDB
:100AF0007F2000F005FE2B2000F0FAFD002000F022
:100B0000FFFD002000F0FCFD002000F0F9FD9F201B
:100B100000F0F6FD362000F0EBFDC82000F0F0FDFF
:100B2000B72000F0E5FD002000F0EAFDF22000F023
:100B3000DFFD012000F0E4FDE02000F0D9FD3F20C2
:100B400000F0DEFD252000F0DBFD212000F0D8FDC7
:100B5000242000F0D5FD1D2000F0D2FD0D2000F076
:100B6000CFFD4C2000F0CCFDB82000F0C9FD3820AE
:100B700000F0C6FD172000F0C3FD0F2000F0C0FDFF
:100B8000082000F0BDFD042000F0BAFD022000F0B6
:100B9000B7FD002000F0B4FDE12000F0A9FD002029
:100BA00000F0AEFD1A2000F0ABFD1E2000F0A8FD05
:100BB0000B2000F0A5FD122000F0A2FD122000F095
:100BC0009FFD332000F09CFD472000F099FD472059
:100BD00000F096FD082000F093FD202000F090FD2D
:100BE000272000F08DFD3C2000F08AFD3D2000F024
:100BF00087FD3F2000F084FDBDE81040292000F073
:100C000077BD00002DE9F74F82B00020029982469F
:100C1000602905D80399482902D8202A05D007D28F
:100C20004FF0000005B0BDE8F08F4FF00A00F9E783
:100C3000A2F12002DFF81C91D1B20491D9F8002072
:100C40004FF00007117892F802B0884601FB0BF1D3
:100C5000019178E003994FF00006394489B2009180
:100C60006EE000BF4FF6FF7101EAC6030299019AD8
:100C700001EBC6018CB2049901FB02F107FB0812DB
:100C8000D9F800103144555C290607D5B9F804009D
:100C9000009982B2204600F069FD581C690608D50B
:100CA000B9F80400009982B2601C80B200F05EFDC9
:100CB000981CA90608D5B9F80400009982B2A01CB6
:100CC00080B200F053FDD81CE90608D5B9F804003D
:100CD000009982B2E01C80B200F048FD181D29077F
:100CE00008D5B9F80400009982B2201D80B200F046
:100CF0003DFD581D690708D5B9F80400009982B276
:100D0000601D80B200F032FD981DA90708D5B9F822
:100D10000400009982B2A01D80B200F027FDD81D0A
:100D2000E90709D0B9F80400E41D82B2A0B2009925
:100D300000F01CFD03F10800504500D98246761CE6
:100D400046458FD37F1C5F4584D30AEBDA00401CF5
:100D500068E70000000000202DE9F05F0021472334
:100D60005F22084600F0D0FE2C2000F0C1FC1B4D95
:100D700000244FF6FF784FF4FC694FF4784A4FF6A1
:100D8000E07B4FF4D856285D58B1FF2818D07E2854
:100D900018D0F82818D01F2818D0FE2818D0EE2810
:100DA00018D00027380A00F0ABFCF8B200F0A8FC1D
:100DB000641CB442E7DBBDE8F05F002000F098BCA3
:100DC0004746EFE74F46EDE75746EBE71F27E9E7D2
:100DD0005F46E7E748F23047E4E7000034000020D0
:100DE000014AC2E90001704700000020F0B5164634
:100DF0000D4604460C4F12E0602C05D338680024E1
:100E00006D1E8078284485B2482D01D300242546E4
:100E100029462046FFF7F6FE204484B2761C32783D
:100E2000002AE9D1F0BD000000000020044908B507
:100E30008A6902438A6189690140009108BD000006
:100E400000100240044908B58A6902438A61896931
:100E50000140009108BD000000100240044908B59F
:100E60008A6902438A6189690140009108BD0000D6
:100E700000100240F0B50A68C2F30F2595FAA5F2FA
:100E8000B2FA82F369E001229A402A4264D0082B28
:100E900003D240F201129A4006E0A3F108024FF09B
:100EA0000114944044F080624C68082C0BD10C690A
:100EB000C668170A97FAA7F7B7FA87F726EA12263D
:100EC000BC402643C66092FAA2F700EB1264B7FA60
:100ED00087F74FEA870C0F27266807FA0CF7BE43FF
:100EE00092FAA2F7D1F804E0B7FA87F7BF000EFA3A
:100EF00007FE46EA0E0626604F68012F01D0092F33
:100F00002AD192FAA2F7B7FA87F74FEA870C03279C
:100F100007FA0CF7BE4392FAA2F7B7FA87F7D1F8AF
:100F200008E0BF000EFA07FE92FAA2FC46EA0E069F
:100F3000BCFA8CFC4FEA8C0E4FF0040C26600CFAC5
:100F40000EFC92FAA2F2B2FA82F2CF68920026EA7E
:100F50000C0697403E4326605B1C35FA03F292D1A3
:100F60000020F0BD8068090A81430804000C01D00C
:100F7000002070470120704700B5034600F0C6FA14
:100F8000186000F099FA586000F0A4FA9860586868
:100F900000F0AEFAD86000BD01490860704700005B
:100FA0003000002010B501291CD004291CD01029C4
:100FB0001CD040291CD0B1F5807F1BD0B1F5806FCB
:100FC0001AD006210D4B18305B5C184403680B4C9B
:100FD000E41D615C03248C40120CA3438A4013433C
:100FE000036010BD0021EDE70121EBE70221E9E7F5
:100FF0000321E7E70421E5E70521E3E7541B0008A7
:1010000010B501291CD004291CD010291CD040295E
:101010001CD0B1F5807F1BD0B1F5806F1AD00621AE
:101020000D4B18305B5C184403680B4CE41D615C8D
:10103000F0248C40120CA3438A401343036010BD7C
:101040000021EDE70121EBE70221E9E70321E7E7D2
:101050000421E5E70521E3E7541B000810B5012949
:1010600016D0042916D0102916D0402916D0B1F573
:10107000807F15D0B1F5806F14D00623016A0A4C29
:10108000E35C0A249C40A1439A401143016210BDD5
:101090000023F3E70123F1E70223EFE70323EDE762
:1010A0000423EBE70523E9E7621B000810B50129DB
:1010B0001CD004291CD010291CD040291CD0B1F50B
:1010C000807F1BD0B1F5806F1AD006210D4B1830F0
:1010D0005B5C184403680B4CE41D615C0C248C4081
:1010E000120CA3438A401343036010BD0021EDE7B7
:1010F0000121EBE70221E9E70321E7E70421E5E726
:101100000521E3E7541B000870B50268134B144C2B
:101110004FF08045984203D0A84201D0A04203D1AD
:101120004E6822F070023243984203D0A84201D0A8
:10113000A04203D1CC6822F44072224302608A6844
:10114000C2620A888262984201D1096901634169D9
:1011500041F001014161002070BD0000002C014000
:10116000000400402DE9FF410446C0680D460126F9
:10117000C0F34030E8BBE9686868E2680843296961
:1011800041F20C639A4311430843E060A868216967
:1011900021F44051014321616869616921F4407182
:1011A000014361616846FFF7E7FE2248844201D1AE
:1011B000039803E02048844238D10298C8B12968D6
:1011C000B9B100EBC00202EB00128900B2FBF1F3EF
:1011D0006420B3FBF0F3B2FBF1F56FF018077B432B
:1011E000002605EB8305322303EB0515B5FBF0F56F
:1011F00000E01BE0B2FBF1F7B7FBF0F705F0F005FC
:1012000005EB0715B2FBF1F7B2FBF1F1B1FBF0F121
:101210006FF01802514307EB810103EB0111B1FBA1
:10122000F0F000F00F00284480B2A06004B0304617
:10123000BDE8F08100380140004400402DE9F0474E
:1012400086B014216846FFF73DF81020FFF7EEFD49
:101250002020FFF7EBFD0420FFF7E8FD0820FFF753
:10126000E5FD1D481B4A4FF4005141611C4FDFF85A
:101270006C9049F2F0017961DFF86C80DFF864A0CE
:1012800040F61243C8F814300024012502260394C6
:101290008DE864006946FFF7EDFD40F60E600090B2
:1012A00008200190694604943846FFF7E3FDCDE934
:1012B0000264CDE9009569463846FFF7DBFDCDE9CC
:1012C0000264CDE900A569464046FFF7D3FD06B0AC
:1012D000BDE8F0872000200400100140F0F09004E9
:1012E000000801401E120C04000C0140104810B50B
:1012F0000E4901604FF48271416000218160C1603C
:101300004FF400720161C0E905121022C0E9072103
:10131000416281620A21C162FFF74AFA002803D0C4
:10132000BDE81040FFF7BFB810BD0000003001401D
:10133000441B002030B58BB014216846FEF7C2FF75
:10134000142105A8FEF7BEFF4FF40060FFF77AFDF9
:101350000420FFF777FD2A48059008200690012019
:10136000099005A92748FFF785FD274CA06820F0C4
:10137000070040F00100A0604FF480352A460121AB
:101380002046FFF70FFE002201212046FFF78EFEC8
:101390002A0101212046FFF733FE002201212046C9
:1013A000FFF75CFE2A4610212046FFF7FBFD0022D6
:1013B00010212046FFF77AFE6A0110212046FFF730
:1013C0001FFE002210212046FFF748FE0020ADF846
:1013D0000000691ECDE90101039004906946204692
:1013E000FFF792FE206820F080002060606820F007
:1013F00070006060A06820F08000A0600BB030BD7D
:101400000300030400080140002C014030B58DB0FA
:101410001C216846FEF756FF142107A8FEF752FF6D
:101420004FF48040FFF71AFD0820FFF717FD44F244
:10143000400007900920089003200024CDE909040A
:10144000174D07A92846FFF715FD48F280000790C1
:101450000420089007A92846FFF70CFD11484168B1
:10146000114A114341604FF4E130CDE900040C20F2
:101470000294CDE90340059406940C4C694620463D
:10148000FFF770FE206920F490402061606920F031
:101490002A006061E06840F40050E0600DB030BDAB
:1014A000000C01400000014004000007003801402A
:1014B000FEE7FEE77047000004494968044A01F06E
:1014C000F0010909515CC84070470000001002405B
:1014D0008975000804494968044A01F4E06102EB97
:1014E00011210978C8407047001002409975000822
:1014F00004494968044A01F4605102EBD12109789A
:10150000C8407047001002409975000806484068BE
:1015100010F00C01054805D0042903D0082901D199
:1015200000F006B8704700000010024000127A0078
:101530000B48416811F480320A4909D0B2F5803F66
:1015400006D14168084AC1F34041491CB2FBF1F1A0
:101550004068022200F4701002EB9040484370474C
:101560000010024000093D0000127A0038B50B4619
:10157000009204460022802100F008F8002804D0E0
:10158000606D40F020006065032038BD2DE9F84310
:101590001E46914688460446089DFFF779F8401B91
:1015A000351AFFF775F8074625480068C0F3CB30B9
:1015B000684338E0701C37D0FFF76AF8C01BA842B8
:1015C00003D215B1009860B32CE02068416821F087
:1015D000E00141606068B0F5827F0BD1A068B0F592
:1015E000004F02D0B0F5806F04D12068016821F06F
:1015F00040010160A06AB0F5005F09D12068016870
:1016000021F4005101602068016841F4005101603B
:10161000012084F85100002084F850000320BDE828
:10162000F8830025401E00902068816838EA010098
:1016300004D000214945BDD10020F0E70121F9E7A0
:10164000300000207047FFF729B80000244810B58B
:10165000016821F0070141F002010160016801F019
:1016600007010229FAD11F48016841F48031016065
:101670000168C1F340410029FAD0416821F47C118E
:1016800041F4E8114160016841F080710160016836
:10169000C1F340610029FAD0416821F0F0014160B6
:1016A000416821F4E06141F480614160416821F4C6
:1016B00060514160416821F0030141F00201416045
:1016C000416801F00C010829FAD10748FFF764FCD2
:1016D0000F20FEF7FDFF002801D072B6FEE710BD17
:1016E000002002400010024000A24A047047FEE7BA
:1016F000024A1021516100F02FB80000000C014097
:10170000024A1021116100F027B80000000C0140CE
:101710000907090E002804DB00F1E02080F800141E
:10172000704700F00F0000F1E02080F8141D7047B2
:10173000084847F6F8714162016A41F0010101620F
:10174000016A41F010010162016841F0010101608C
:1017500070470000002C014001B501231A4669467C
:101760000148FFF7B7F808BD441B002001EB410119
:1017700000EB4110014980B20A5470473400002048
:101780002DE9F041194C4FF480506061C50065614E
:101790000520FEF78BFE25610520FEF787FEFFF78B
:1017A00061F93620FFF7A4FF6020FFF7A9FF10487A
:1017B0000021472300895F2286B2350A084600F0DF
:1017C000A3F92C20FFF794FF00244FF4D8572846A4
:1017D000FFF796FFF0B2FFF793FF641CA4B2BC4280
:1017E000F5D3BDE8F0410020FFF782BF00080140BB
:1017F000000000202DE9F0412C48416A2C48C160CE
:10180000C16847F6FF72491E89B2511A01EBD171C6
:101810004910C160C1688268914228D0C16882685D
:101820008E1AC1688160234C0227E5144FF480684A
:10183000002E1CD01DDA2761C4F810804FF005007F
:10184000FEF734FE06EB860607E00320FEF72EFEC9
:1018500065610320FEF72AFE761C002E2561F4DB6D
:10186000C4F814800320FEF721FE65616761BDE8BE
:10187000F0812761C4F814800520FEF717FE06EBFF
:10188000860607E00320FEF711FE65610320FEF7E0
:101890000DFE761E002E2561F4DCC4F810800320B6
:1018A000FEF704FE65616761E1E70000002C01407E
:1018B0000C000020000C0140FEF7F8FEFFF7C6FE0A
:1018C000FFF7BCFCFFF7A2FDFFF710FDFFF732FDAD
:1018D000FFF72EFFFFF754FFFEF7D8FD0021204849
:1018E000FFF77EFA1FA200210320FFF77FFAFFF720
:1018F00033FA1F4E4FF40058C6F814801D483115B6
:101900000161022141611C4900201C4F08800C1F0D
:101910005FF00005FFF76EFF00F038F8606100B17E
:1019200020616D1CBD42F5D315A210211648236914
:10193000FEF74EFCFEF7AAFD134A0A210320FFF72B
:1019400055FAFFF709FAF1684FF484208843000440
:10195000000C404601D03061DAE77061D8E7000042
:10196000C957000873746172742E2E2E0000000097
:1019700000100140000C014010000020FFFF040097
:101980006B65793D25780000341B00202DE9F05F60
:101990005B4C207802275B4D4FF040084FF0100958
:1019A0004FF0800A4FF0200B261D28BB40F2022189
:1019B0002846FFF7D7FA01280ED040F20441284606
:1019C000FFF7D0FA01281BD040F608012846FFF7A0
:1019D000C9FA012829D03DE02770607830B101288C
:1019E00006D0022806D0032834D106E0012030E0DA
:1019F00008202EE0A6F800802CE04FF4007028E0CC
:101A00002770607830B1012806D0022807D003285B
:101A100020D107E037801DE0A6F800901AE0A6F874
:101A200000A017E04FF4806013E02770607830B1B9
:101A3000012806D0022807D003280BD107E0042094
:101A400007E0A6F800B005E04FF4807001E04FF425
:101A5000006030802078022803D1012020703220DD
:101A600060802078012808D1608810B16088401E0D
:101A700002E003202070642060802078032818D1C1
:101A8000608810B16088401E12E040F202212846B2
:101A9000FFF768FA58B940F204412846FFF762FAA6
:101AA00028B940F608012846FFF75CFA50B16420D7
:101AB0006080607858B101280FD0022814D0032824
:101AC00010D117E0002020703088BDE8F09F012081
:101AD0006070C5F810B0484603E06770C5F8108024
:101AE000584668610020F0E703206070C5F810A038
:101AF0004046F6E700206070C5F810905046F0E7C9
:101B00000C000020000801402DE9F04104461D466C
:101B100016460F462A20FFF7EBFD0020FFF7F0FDE9
:101B20002046FFF7EDFD0020FFF7EAFD3046FFF706
:101B3000E7FD2B20FFF7DCFD0020FFF7E1FD384635
:101B4000FFF7DEFD0020FFF7DBFD2846BDE8F04192
:101B5000FFF7D6BD000000000404040000080000E8
:101B6000000800020406080A0C03161745E00000EE
:101B70000000000000000000000000000000000065
:101B80000000000000000000000000000000000055
:101B90000000000000000000000000000000000045
:101BA0000000000000000000000000000000000035
:101BB00000000000000000000000300000300000C5
:101BC00030000030000030000030000030000030F5
:101BD0000000300000300000300000000000300045
:101BE00000300000000000000000000000000000C5
:101BF0000000000000000000000000000000006C79
:101C000000006C00006C00000000000000000000FC
:101C100000000000000000000000000000000000C4
:101C200000000000000000000000000000000000B4
:101C300000000000000000000000000000000000A4
:101C4000000000000CC000088000088000FFE000D9
:101C5000FFE000198000110000110000FFE000FF0C
:101C6000E0002200002200002200006600000000C8
:101C70000000000000000000000000000000000064
:101C80000000000000000400000E00003F8000641F
:101C9000C0006400006400003C00000F00000780EA
:101CA0000004C00004C00064C0002580003F800024
:101CB0000E0000040000040000000000000000000E
:101CC00000000000000000000000000000001808F4
:101CD00000240800661000663000662000246000C2
:101CE000184000008C000192000133000333000211
:101CF0003300061200040C00000000000000000089
:101D000000000000000000000000000000000000D3
:101D10000000000E00001F00003180003180001123
:101D200000000F00000E000036000023300061A00C
:101D30000060E00030E0003FB0000E000000000056
:101D40000000000000000000000000000000000093
:101D50000000000000000000600000600000600063
:101D60000000000000000000000000000000000073
:101D70000000000000000000000000000000000063
:101D80000000000000000000000000000000000053
:101D90000000000000000000000000000000000043
:101DA00008000010000010000020000020000020AB
:101DB0000000600000600000600000600000200083
:101DC000002000003000001000001000000800009B
:101DD0000000000000000000000000000000000003
:101DE0000000000000400000200000200000100063
:101DF000001000001000001800001800001800007B
:101E0000180000100000100000300000200000202A
:101E10000000400000000000000000000000000082
:101E2000000000000000001000001000007C000016
:101E3000100000280000000000000000000000006A
:101E40000000000000000000000000000000000092
:101E50000000000000000000000000000000000082
:101E60000000000000000000000000000000000072
:101E7000000000000006000006000006000006004A
:101E8000007FE0007FE00006000006000006000082
:101E9000060000000000000000000000000000003C
:101EA0000000000000000000000000000000000032
:101EB0000000000000000000000000000000000022
:101EC0000000000000000000000000000000000012
:101ED0000000000000600000600000200000000022
:101EE00000000000000000000000000000000000F2
:101EF00000000000000000000000000000000000E2
:101F00000000000000000000000000000000F800D9
:101F100000F80000000000000000000000000000C9
:101F200000000000000000000000000000000000B1
:101F300000000000000000000000000000000000A1
:101F40000000000000000000000000000000000091
:101F50000000000000000000000000000000003051
:101F60000000300000000000000000000000000041
:101F70000000000000000000000000000000000061
:101F80000C000008000008000018000010000010FD
:101F90000000300000300000200000200000600041
:101FA00000400000400000C00000000000000000F1
:101FB0000000000000000000000000000000000021
:101FC00000000000000E00003F80003180002080F3
:101FD0000060C00060C00060C00060C00060C00061
:101FE00060C0002080003180003F80000E000000B3
:101FF00000000000000000000000000000000000E1
:1020000000000000000000000000020000060000C8
:102010000E00001600002600000600000600000664
:102020000000060000060000060000060000060092
:10203000000600000000000000000000000000009A
:102040000000000000000000000000000000000E82
:1020500000003F800021800060C00000C0000080C0
:10206000000180000300000600000C0000180000C2
:102070003000003FC0007FC00000000000000000F2
:102080000000000000000000000000000000000050
:10209000000000000E00003F000021800061800071
:1020A00001000006000003000000800000C00000E6
:1020B000C00060C0002080003F80000E00000000D3
:1020C0000000000000000000000000000000000010
:1020D00000000000000000000001000003000007F5
:1020E00000000700000B0000130000330000630035
:1020F00000430000FFC000FFC00003000003000019
:1021000003000000000000000000000000000000CC
:1021100000000000000000000000000000003F8000
:10212000003F80002000002000002000002600006A
:102130003F800060800000C00000C00060C0002040
:1021400080003F80000E0000000000000000000042
:10215000000000000000000000000000000000007F
:102160000000000E00001F800030800020C0002012
:1021700000006600007F800070800060C00060C0CA
:102180000020C0003080001F80000E000000000012
:10219000000000000000000000000000000000003F
:1021A00000000000000000007FC0007FC000008031
:1021B000000100000300000200000600000400000F
:1021C0000C00000C000008000008000018000018B7
:1021D00000000000000000000000000000000000FF
:1021E000000000000000000000000000000E0000E1
:1021F0003F800020800060C00060C0002080001F81
:1022000000001F000020800060C00060C00020802F
:10221000003F80000E0000000000000000000000F1
:1022200000000000000000000000000000000000AE
:1022300000000E00003F000020800060800060C0B1
:102240000060C00021C0003FC0000CC00000800042
:102250006080002180003F00000E000000000000B0
:10226000000000000000000000000000000000006E
:10227000000000000000000000000000000000005E
:1022800000000030000030000000000000000000EE
:1022900000000000000000000000003000003000DE
:1022A000000000000000000000000000000000002E
:1022B000000000000000000000000000000000001E
:1022C00000000000000000003000003000000000AE
:1022D00000000000000000000000000000000000FE
:1022E000300000300000100000000000000000007E
:1022F00000000000000000000000000000000000DE
:102300000000000000000000000000000001C0000C
:10231000070000180000600000180000070000011E
:10232000C0000000000000000000000000000000ED
:10233000000000000000000000000000000000009D
:10234000000000000000000000000000000000008D
:1023500000007FC0007FC0000000000000007FC0C0
:10236000007FC0000000000000000000000000002E
:10237000000000000000000000000000000000005D
:10238000000000000000000000000000000000004D
:10239000000000000000007000001C0000030000AE
:1023A00000C0000300001C000070000000000000DE
:1023B000000000000000000000000000000000001D
:1023C000000000000000000000000000000000000D
:1023D0000E00003F800031800060C00000C000019E
:1023E00080000300000600000400000C00000C0048
:1023F000000000000C00000C0000000000000000C5
:1024000000000000000000000000000000000000CC
:10241000000000000000F80003FE000E0380180119
:10242000C01066C031F440230C60220C6066086066
:102430006608406608C062198023FF00318C0018CE
:1024400000400E018007FF0000F8000000000000BF
:10245000000000000000000000000700000700006E
:102460000500000D800008800018C00018C0001092
:1024700040003FE0003FE00060300060300040106E
:1024800000C0180000000000000000000000000074
:102490000000000000000000000000000000003FFD
:1024A00080003FC00030600030600030600030408D
:1024B000003F80003FC0003060003030003030000E
:1024C0003020003FE0003F800000000000000000DE
:1024D00000000000000000000000000000000000FC
:1024E000000000000380000FE000183000301000F2
:1024F000200000600000600000600000600000201C
:1025000018003010001820001FC000070000000055
:1025100000000000000000000000000000000000BB
:102520000000000000000000003F80003FE000309D
:1025300030003030003010003018003018003018F3
:10254000003018003010003030003030003FE00024
:102550003F800000000000000000000000000000BC
:1025600000000000000000000000000000003FF03C
:10257000003FF0003000003000003000003000006C
:102580003FE0003FE000300000300000300000304D
:1025900000003FF0003FF0000000000000000000DD
:1025A000000000000000000000000000000000002B
:1025B0000000003FE0003FE000300000300000304D
:1025C00000003000003FC0003FC00030000030007D
:1025D000003000003000003000003000000000003B
:1025E00000000000000000000000000000000000EB
:1025F000000000000000000003C0000FF0001818E9
:102600000030080020000060000060000060FC0056
:1026100060FC00200C00300C00181C000FF80003B8
:10262000C0000000000000000000000000000000EA
:10263000000000000000000000000000006030000A
:102640006030006030006030006030006030007F3B
:10265000F0007FF0006030006030006030006030DB
:10266000006030006030000000000000000000004A
:10267000000000000000000000000000000000005A
:10268000000030000030000030000030000030005A
:10269000003000003000003000003000003000004A
:1026A000300000300000300000300000000000006A
:1026B000000000000000000000000000000000001A
:1026C0000000000000000003000003000003000001
:1026D00003000003000003000003000003000003E8
:1026E00000000300006300006200003E00001C00C8
:1026F00000000000000000000000000000000000DA
:102700000000000000000000000000003060003009
:10271000C00031C0003180003300003600003E00B0
:10272000003F000033000031800030C00030600006
:102730003070003030000000000000000000000099
:102740000000000000000000000000000000000089
:102750000030000030000030000030000030000089
:102760003000003000003000003000003000003049
:1027700000003000003FC0003FC00000000000002B
:102780000000000000000000000000000000000049
:10279000000000000000400400701C00783C00684D
:1027A0002C00682C006C6C006C6C00644C00644C59
:1027B0000066CC00628C00638C00638C00638C002C
:1027C0000000000000000000000000000000000009
:1027D00000000000000000000000006030007030C9
:1027E000007030006830006C3000643000663000EB
:1027F00063300061300061B00060B0006070006064
:1028000070006030000000000000000000000000C8
:1028100000000000000000000000000000000000B8
:102820000380000FE000183000301800200800601E
:102830000C00600C00600C00600C002008003018D8
:10284000001830000FE000038000000000000000CE
:102850000000000000000000000000000000000078
:1028600000000000003F80003FE00030600030309A
:10287000003030003030003060003FE0003F80002A
:102880003000003000003000003000003000000058
:102890000000000000000000000000000000000038
:1028A000000000000000000000000380000FE000B6
:1028B000183000301800200800600C00600C006028
:1028C0000C00600C002008003098001870000FF019
:1028D000000388000000000000000000000000006D
:1028E0000000000000000000000000000000003FA9
:1028F000C0003FE000303000303000303000303079
:10290000003FE0003FC00030800030C00030600079
:102910003060003030003010000000000000000087
:1029200000000000000000000000000000000000A7
:10293000000000000780001FE00010600030300041
:102940003000001800000F000000E00000200060D0
:1029500030002030003060001FE0000780000000E1
:102960000000000000000000000000000000000067
:102970000000000000000000007FE0007FE0000693
:102980000000060000060000060000060000060029
:102990000006000006000006000006000006000019
:1029A0000600000000000000000000000000000021
:1029B0000000000000000000000000000000603087
:1029C0000060300060300060300060300060300037
:1029D0006030006030006030006030002020003047
:1029E00060003FC000070000000000000000000081
:1029F00000000000000000000000000000000000D7
:102A0000000000C01800C018004010006030002016
:102A1000200030600010600010400018C0000880E6
:102A2000000D800005000007000007000000000006
:102A30000000000000000000000000000000000096
:102A40000000000000000000C0E06040E04040A046
:102A50004041B0406110C06110C02318802318802D
:102A6000220880320980360D801405001C07001CE6
:102A7000070000000000000000000000000000004F
:102A800000000000000000000000000000306000B6
:102A900030600018C0000D80000D800007000002AB
:102AA00000000700000D800018C00018C000306052
:102AB00000603000603000000000000000000000F6
:102AC0000000000000000000000000000000000006
:102AD000000040200060600030C00030C00019805D
:102AE000000900000F0000060000060000060000BC
:102AF00006000006000006000006000000000000BE
:102B000000000000000000000000000000000000C5
:102B1000000000000000007FE0007FC00000C00057
:102B20000180000100000200000600000C00000807
:102B300000001000003000006000007FE000FFE0B7
:102B40000000000000000000000000000000000085
:102B50000000000000000000000000007800007885
:102B60000000600000600000600000600000600085
:102B70000060000060000060000060000060000075
:102B800060000060000060000060000078000078D5
:102B90000000000000000000000000000000000035
:102BA00000C0000040000040000060000020000065
:102BB000200000300000300000100000100000185D
:102BC00000000800000800000C00000000000000E9
:102BD00000000000000000000000000000000000F5
:102BE000000000000000F00000F0000030000030A5
:102BF00000003000003000003000003000003000E5
:102C000000300000300000300000300000300000D4
:102C1000300000300000F00000F000000000000074
:102C20000000000000000000000000100000100084
:102C300000280000280000440000440000C60000F6
:102C40000000000000000000000000000000000084
:102C50000000000000000000000000000000000074
:102C60000000000000000000000000000000000064
:102C70000000000000000000000000000000000054
:102C80000000000000000000000000000000000044
:102C90000000000000000000000000000000000034
:102CA000FFE000FFE0000000000000000000000066
:102CB00000000000002000002000001000000000C4
:102CC0000000000000000000000000000000000004
:102CD00000000000000000000000000000000000F4
:102CE00000000000000000000000000000000000E4
:102CF00000000000000000000000000000000000D4
:102D00000000000000000E00003F00006180000392
:102D100080003F80003180006180006380003F8040
:102D2000001C800000000000000000000000000007
:102D30000000000000000000000000000000006033
:102D400000006000006000006000006600006F800E
:102D50000071800060C00060C00060C00060C00002
:102D60007180006F8000660000000000000000001D
:102D70000000000000000000000000000000000053
:102D80000000000000000000000000000000000043
:102D90000E00003F00003180006000006000006015
:102DA00000006000003180003F00000E00000000C5
:102DB0000000000000000000000000000000000013
:102DC00000000000000000000000C00000C0000083
:102DD000C00000C0000CC0003EC00031C00060C098
:102DE0000060C00060C00060C00031C0003EC00094
:102DF0000CC0000000000000000000000000000007
:102E000000000000000000000000000000000000C2
:102E1000000000000000000000000E00003F8000E5
:102E20003180006080007FC0007FC0006000003003
:102E300080003F80000E0000000000000000000045
:102E40000000000000000000000000000000000082
:102E50000000000C00001C00003000003000007C6E
:102E600000007C0000300000300000300000300026
:102E70000030000030000030000030000000000092
:102E80000000000000000000000000000000000042
:102E90000000000000000000000000000000000032
:102EA000000000000EC0003FC00031C00060C00044
:102EB00060C00060C00060C00031C0003FC0000EB4
:102EC000C00000C0006080003F80001E00000000C5
:102ED0000000000000000000000000000060000092
:102EE0006000006000006000006600006F0000717C
:102EF00080006180006180006180006180006180ED
:102F000000618000618000000000000000000000FF
:102F100000000000000000000000000000000000B1
:102F20000000600000600000000000000000600081
:102F300000600000600000600000600000600000B1
:102F40006000006000006000006000000000000001
:102F50000000000000000000000000000000000071
:102F600000000000000000600000600000000000A1
:102F70000000006000006000006000006000006071
:102F80000000600000600000600000600000600061
:102F900000600000600000C00000C00000000000F1
:102FA0000000000000000000000000006000006061
:102FB0000000600000600000610000630000660027
:102FC000006C00007C00006C0000660000660000E1
:102FD000630000610000000000000000000000002D
:102FE00000000000000000000000000000000000E1
:102FF00000600000600000600000600000600000F1
:103000006000006000006000006000006000006080
:103010000000600000600000600000000000000090
:1030200000000000000000000000000000000000A0
:103030000000000000000000000000000000000090
:1030400000006618006F7C0071C600618600618612
:1030500000618600618600618600618600618600ED
:103060000000000000000000000000000000000060
:103070000000000000000000000000000000000050
:10308000000000000000006600007F00007180006A
:10309000618000618000618000618000618000616A
:1030A00080006180000000000000000000000000BF
:1030B0000000000000000000000000000000000010
:1030C0000000000000000000000000000E00003FB3
:1030D000800031800060C00060C00060C00060C03F
:1030E000003180003F80000E000000000000000062
:1030F00000000000000000000000000000000000D0
:1031000000000000000000000000000000000000BF
:10311000006600006F800071800060C00060C00029
:1031200060C00060C0007180007F800066000060A9
:10313000000060000060000060000000000000006F
:10314000000000000000000000000000000000007F
:103150000000000000000CC0003EC00031C0006054
:10316000C00060C00060C00060C00031C0003FC04F
:10317000000CC00000C00000C00000C00000C00083
:10318000000000000000000000000000000000003F
:1031900000000000000000000000006C000078004B
:1031A000006000006000006000006000006000003F
:1031B00060000060000060000000000000000000EF
:1031C00000000000000000000000000000000000FF
:1031D00000000000000000000000000000000000EF
:1031E0001E00003F00006180006000003C000007FE
:1031F00000000180006180003F00001E0000000010
:1032000000000000000000000000000000000000BE
:10321000000000000000000000000000200000602E
:103220000000600000F80000F8000060000060008E
:103230000060000060000060000060000078000096
:103240003800000000000000000000000000000046
:10325000000000000000000000000000000000006E
:10326000000000000000000000006180006180009C
:103270006180006180006180006180006180006386
:1032800080003D8000198000000000000000000068
:10329000000000000000000000000000000000002E
:1032A000000000000000000000000000000000C15D
:1032B0008000410000410000630000220000220065
:1032C000001400001C00001C0000080000000000AA
:1032D00000000000000000000000000000000000EE
:1032E00000000000000000000000000000000000DE
:1032F00000000000C21800C21800C71000451000EE
:1033000065100068A00028A00038E00038E0001038
:10331000400000000000000000000000000000006D
:10332000000000000000000000000000000000009D
:1033300000000000000000000041000063000022C7
:1033400000001400001C00001C00001C00002200F3
:1033500000630000410000000000000000000000C9
:10336000000000000000000000000000000000005D
:103370000000000000000000000000000000C1800C
:103380000041000061000023000022000012000044
:103390001600000E00000C00000C00000C000018CD
:1033A0000000780000600000000000000000000045
:1033B000000000000000000000000000000000000D
:1033C0000000007F80007F80000380000600000C6A
:1033D0000000380000700000E00000FF8000FF8067
:1033E00000000000000000000000000000000000DD
:1033F0000000000000000000000000000C00001CA5
:1034000000003000003000003000003000003000CC
:1034100000200000C00000C00000200000300000BC
:103420003000003000003000003000001C00000CB4
:10343000000000000000000000000000000000008C
:10344000003000003000003000003000003000008C
:10345000300000300000300000300000300000304C
:10346000000030000030000030000030000030006C
:1034700000300000300000000000000000000000EC
:10348000000000000000C00000E00000300000303C
:1034900000003000003000003000001000000C0080
:1034A000000C000010000030000030000030000070
:1034B000300000300000E00000C00000000000000C
:1034C00000000000000000000000000000000000FC
:1034D00000000000000000000000000000100000DC
:1034E0003C40004780000100000000000000000098
:1034F00000000000000000000000000000000000CC
:1035000000000000000000000000000000000000BB
:1035100000000000000000000000000000000000AB
:10352000000000000000000000000000000000009B
:10353000000000000000000000000000000000008B
:10354000000000000000000000000000000000007B
:1035500000000000007FE0007FE0000600000600A1
:103560000006000006700007FC00060C00060600BE
:10357000060600060600060C00067C000630000069
:10358000000000000000000000000000000001003A
:10359000000100000200000000003FC0003FC0002A
:1035A00030000030000030000030000030000030FB
:1035B000000030000030000030000030000030001B
:1035C00000300000000000000000000000000000CB
:1035D00000000000000000000000000000000000EB
:1035E00000000000000000000000000000000000DB
:1035F00000000000000000000000000000000000CB
:1036000000000060000060000020000000000000DA
:1036100000000000000000000000000000000000AA
:10362000000000000800000800001000000000007A
:103630007E00007E0000600000600000600000600E
:1036400000006000006000006000006000000000FA
:10365000000000000000000000000000000000006A
:10366000000000000000000000000000000000005A
:10367000000000000000000000000000000000004A
:10368000000000000000000000000000006C0000CE
:103690006C0000240000000000000000000000009A
:1036A000000000000000000000000000000000001A
:1036B000000000000000000000000000000000000A
:1036C00000000000000000000000000000000000FA
:1036D000000030C30030C300000000000000000004
:1036E00000000000000000000000000000000000DA
:1036F0000000000600000600000600000600007F33
:10370000E0007FE000060000060000060000060062
:10371000000600000600000600000600000600008B
:10372000060000060000000000000000000000008D
:103730000000000000000000060000060000060077
:10374000000600007FE0007FE000060000060000A9
:103750000600000600000600007FE0007FE0000693
:103760000000060000060000060000000000000047
:1037700000000000000000000000000000038000C6
:103780000FC000180000300000200000200000FFE3
:103790008000600000FF8000200000300000180062
:1037A000001FC000038000000000000000000000B7
:1037B0000000000000000000000000000000000009
:1037C0000000210000530000DB0000DA0000DE00F2
:1037D000005E00002400000482000D45000F6D8093
:1037E0000B6D801B6D8019450010C30000000000A8
:1037F00000000000000000000000000000000000C9
:10380000000000000000003FE0003FE000306000EA
:10381000306000306000306000307F00307FC030AA
:103820006040306060306060306040E07FC0407F6A
:103830000000000000000000000000000000000088
:103840000000000000000000000000000000000078
:103850000000000000000000080000180000100038
:103860000020000060000020000010000018000090
:103870000800000000000000000000000000000040
:103880000000000000000000000000000000000038
:103890000030C00030C00030C00030C00030C00078
:1038A00030C0003FFE003FFF8030C0C030C0C0309D
:1038B000C0C030C08030FF8030FE0000000000003B
:1038C00000000000000000000000020000020000F4
:1038D00004000000000030600030E0003180003162
:1038E00000003300003200003C00003200003300D2
:1038F0000031000030800030800030400030400057
:1039000000000000000000000000000000000000B7
:103910000000000000000000000000FFC000FFC029
:10392000000C00000C00000C00000CE0000FF80080
:103930000C18000C0C000C0C000C0C000C0C000CF7
:103940000C000C0C00000000000000000000000053
:103950000000000000000000000000000000000067
:103960003030003030003030003030003030003047
:103970003000303000303000303000303000303037
:10398000003030003FF0003FF00003000003000073
:103990000300000300000000000000000000000021
:1039A0000000000000600000FC0000FC000060005F
:1039B000006600007F00007180006180006180006F
:1039C0006180006180006180006180006180000191
:1039D0008000018000018000030000000000000062
:1039E00000000000000000000000000000000000D7
:1039F00040000060000060000000000000000000C7
:103A000000000000000000000000000000000000B6
:103A100000000000000000000000000000000000A6
:103A20000000000000000000000000000000006036
:103A30000000600000200000000000000000000006
:103A40000000000000000000000000000000000076
:103A50000000000000000000000000000000000066
:103A60000000000000000000000000000000000056
:103A7000000000000000000000004800006C000092
:103A80006C000000000000000000000000000000CA
:103A90000000000000000000000000000000000026
:103AA0000000000000000000000000000000000016
:103AB0000000000000000000006C00006C0000240A
:103AC00000000000000000000000000000000000F6
:103AD00000000000000000000000000000000000E6
:103AE00000000000000000000000000000000000D6
:103AF00000000000000000000000000000000000C6
:103B000000000000000000000000000000100000A5
:103B10003800007C000038000010000000000000A9
:103B20000000000000000000000000000000000095
:103B30000000000000000000000000000000000085
:103B40000000000000000000000000000000000075
:103B50000000000000000000000000FFE000FFE0A7
:103B60000000000000000000000000000000000055
:103B70000000000000000000000000000000000045
:103B80000000000000000000000000000000000035
:103B90000000000000000000000000000000000025
:103BA000FFFFE0FFFFE00000000000000000000059
:103BB0000000000000000000000000000000000005
:103BC00000000000000000000000000000000000F5
:103BD00000000000000000000000000000000000E5
:103BE00000000000000000000000000000000000D5
:103BF00000000000000000000000000000000000C5
:103C000000000000000000000000000000000000B4
:103C100000003EC60008C60008820008820008AA0C
:103C200000088200089200089200000000000000D6
:103C30000000000000000000000000000000000084
:103C40000000000000000000000000000000000074
:103C50000000000000000000000000000000000064
:103C60000000003FC0003FC00030C00030FC00300A
:103C7000FE0030C30030C30030C300F0FE00E0FCA3
:103C80000000000000000000000000000000000034
:103C90000000000000000000000000000000000024
:103CA0000000000000000000400000600000200054
:103CB000001000001800001000002000006000004C
:103CC00040000000000000000000000000000000B4
:103CD00000000000000000000000000000000000E4
:103CE0000000000000000000000000000063000071
:103CF0006300006300006300007FF0007FF8006352
:103D00000C00630C0063F80063F00000000000008A
:103D100000000000000000000000000000000000A3
:103D20000000000000000800000800001000000073
:103D3000000063000063000064000064000078007D
:103D4000006800006400006400006200006200007F
:103D50000000000000000000000000000000000063
:103D60000000000000000000000000600000FC00F7
:103D700000FC00006000006600007F000071800011
:103D8000618000618000618000618000618000616D
:103D900080006180000000000000000000000000C2
:103DA0000000000000000000000000000000000013
:103DB00000000000000000000000000061800061C1
:103DC000800061800061800061800061800061800E
:103DD000006180007F80007F80000C00000C0000EC
:103DE0000C00000C000000000000000000000000BB
:103DF00000000000000000000000000000000000C3
:103E000000000000000000000000000000000000B2
:103E100000000000000000000000000000000000A2
:103E2000000000000000000000000000000008800A
:103E300000000000020000000000401000202000F0
:103E40003020001040001840000880000C80000561
:103E500000000700000200000200000400003C0017
:103E6000003800000000000000000000000000001A
:103E70000000000000000000000000000000002220
:103E80000000000000080000000000C180004100A8
:103E90000061000023000022000012000016000054
:103EA0000E00000C00000C00000C00001800007850
:103EB00000006000000000000000000000000000A2
:103EC00000000000030000030000030000030000E6
:103ED00003000003000003000003000003000003D0
:103EE00000006300006200003E00001C00000000B3
:103EF00000000000000000000000000000000000C2
:103F000000000000000000000000000000000000B1
:103F100000000000004C80003F0000210000618094
:103F2000006180002100003F00004C800000000084
:103F30000000000000000000000000000000000081
:103F400000000000000300000300000300003F0029
:103F5000003F000030000030000030000030000062
:103F60003000003000003000003000003000003031
:103F700000003000003000000000000000000000E1
:103F80000000000000000000000000000000000031
:103F90000000003000003000003000003000003031
:103FA0000000300000300000300000000000000081
:103FB0000000000030000030000030000030000041
:103FC0003000003000003000000000000000000061
:103FD00000000000000000000E00001F0000318003
:103FE0000010000018000014000023000061800091
:103FF00020C00030C000088000070000030000015E
:1040000000006180002180003F00000E00000000E1
:10401000000000001980001980000000003FF0003F
:104020003FF0003000003000003000003000003F62
:10403000E0003FE0003000003000003000003000C1
:10404000003FF0003FF00000000000000000000012
:104050000000000000000000000000000000000060
:104060000000078000102000201000470800080012
:10407000001000009004009004001044000880002C
:1040800047080020100010200007800000000000FA
:104090000000000000000000000000000000000020
:1040A000000000000000000380000FE00018300056
:1040B0003018002000006000007F00007F000060DA
:1040C00000002000003018003830001FE00007809A
:1040D00000000000000000000000000000000000E0
:1040E00000000000000000000000000000000000D0
:1040F000000000000000000008800019800011008E
:10410000002200006600002200001100001980005B
:104110000880000000000000000000000000000017
:10412000000000000000000000000000000000008F
:10413000000000000000000000000000007FC00040
:104140007FC00000C00000C00000C00000C0000030
:10415000000000000000000000000000000000005F
:10416000000000000000000000000000000000004F
:10417000000000000000000000000000000000003F
:104180000000000000000000000000000000F80037
:1041900000F8000000000000000000000000000027
:1041A000000000000000000000000000000000000F
:1041B0000000000000000000000000078000102048
:1041C000002010004F08000880000880008F0400C5
:1041D00089040008040008000048080020100010AE
:1041E0002000078000000000000000000000000028
:1041F00000000000000000CC0000CC000000000027
:10420000300000300000300000300000300000308E
:1042100000003000003000003000003000003000AE
:1042200000300000300000300000000000000000FE
:10423000000000000000000000000000000000007E
:10424000000000000010000000000044000000001A
:10425000001000000000000000000000000000004E
:10426000000000000000000000000000000000004E
:10427000000000000000000000000000000000003E
:10428000000000000000000000000000000000002E
:104290000000000C00000C00000C00000C0000FFEF
:1042A000C000FFC0000C00000C00000C0000FFC0AC
:1042B00000FFC0000000000000000000000000003F
:1042C00000000000000000000000000000000030BE
:1042D00000003000003000003000003000003000EE
:1042E00000300000300000300000300000300000DE
:1042F000300000300000300000000000000000002E
:1043000000000000000000000000000000000000AD
:1043100000000000600000600000000000000000DD
:10432000600000600000600000600000600000604D
:1043300000006000006000006000006000000000FD
:10434000000000000000000000000000000000006D
:10435000000000000000000000060000060000064B
:1043600000000600007E00007E000060000060008B
:10437000006000006000006000006000006000005D
:1043800060000000000000000000000000000000CD
:10439000000000000000000000000000000000001D
:1043A0000000000000000000000060C00060C000CD
:1043B00060C00060C00060C00060C00060C00071EC
:1043C000C0007FC0006CC0006000006000006000A2
:1043D000006000000000000000000000000000007D
:1043E0000000001FC0007FC000798000F98000F944
:1043F0008000F980007980003980001980001980E0
:1044000000198000198000198000198000198000AF
:10441000198000198000000000000000000000006A
:10442000000000000000000000000000000000008C
:10443000000000000000000000003000003000001C
:10444000000000000000000000000000000000006C
:10445000000000000000000000000000000000005C
:10446000000000000000000000000000000000004C
:104470001980001980000000000E00003F8000310C
:1044800080006080007FC0007FC00060000030803E
:10449000003F80000E00000000000000000000004F
:1044A000000000000000000000000000000000000C
:1044B00000003860003860003860003C63003467FA
:1044C000C0366460326C603264603367C0316380D0
:1044D00031E00030EFE030EFE030E00000000000BD
:1044E00000000000000000000000000000000000CC
:1044F00000000000000000000000000000000000BC
:104500000000000E00003F00002180006000007CE1
:1045100000007C00006000002180003F00001E00C1
:10452000000000000000000000000000000000008B
:10453000000000000000000000000000000000007B
:104540000000000000000000220000330000110005
:10455000000880000CC0000880001100003300003B
:104560002200000000000000000000000000000029
:10457000000000000000000000000000000000003B
:10458000006000006000000000000000006000000B
:1045900060000060000060000060000060000060DB
:1045A000000060000060000060000060000060002B
:1045B00000C00000C000000000000000000000007B
:1045C0000000000000000780001FE00010600030C5
:1045D00030003000001800000F000000E000002054
:1045E000006030002030003060001FE000078000D5
:1045F00000000000000000000000000000000000BB
:1046000000000000000000000000000000000000AA
:10461000000000000000001E00003F00006180005C
:104620006000003C00000700000180006180003F46
:1046300000001E000000000000000000000000005C
:10464000000000000000000000000000000000006A
:10465000000000CC0000CC00000000003000003062
:10466000000030000030000030000030000030005A
:1046700000300000300000300000000000000000AA
:10468000000000000000000000000000000000002A
:1046900000000000000700000700000500000D807A
:1046A0000008800018C00018C0001040003FE00063
:1046B0003FE000603000603000401000C018000093
:1046C00000000000000000000000000000000000EA
:1046D000000000000000000000003FC0003FC000DC
:1046E0003000003000003000003000003F80003F0C
:1046F000C0003060003060003060003040003FC0DB
:10470000003F8000000000000000000000000000EA
:104710000000000000000000000000000000003F5A
:1047200080003FC0003060003060003060003040EA
:10473000003F80003FC0003060003030003030006B
:104740003020003FE0003F8000000000000000003B
:104750000000000000000000000000000000000059
:10476000000000003FC0003FC000300000300000EB
:104770003000003000003000003000003000003019
:104780000000300000300000300000300000000069
:104790000000000000000000000000000000000019
:1047A0000000000000000000001FF0001FF00018D3
:1047B0003000183000183000183000103000303051
:1047C00000303000303000603000603000FFF80012
:1047D000FFF800C01800C01800C01800000000005A
:1047E00000000000000000000000000000003FF09A
:1047F000003FF000300000300000300000300000CA
:104800003FE0003FE00030000030000030000030AA
:1048100000003FF0003FF00000000000000000003A
:104820000000000000000000000000000000000088
:10483000000000C0C0C0F0C3C030C30018C60008EC
:10484000C4000CCC0007F8000CCC0008C40010C257
:104850000030C30020C10060C180C0C0C0000000A3
:104860000000000000000000000000000000000048
:1048700000000000000000000E00003F80003080BB
:104880000060C00000C0000080000700000780003A
:1048900000C00000C00060C0003080003F80000EFB
:1048A0000000000000000000000000000000000008
:1048B0000000000000000000000000000030300098
:1048C00030700030700030B00030B0003130003156
:1048D00030003230003230003430003430003830B4
:1048E0000038300030300000000000000000000000
:1048F0000000000000000880000500000200000029
:10490000000030300030700030700030B00030B047
:1049100000313000313000323000323000343000AD
:1049200034300038300038300030300000000000F3
:104930000000000000000000000000000000000077
:104940000000000000000030600030E00031800016
:104950003100003300003200003C00003200003320
:104960000000310000308000308000306000306096
:104970000000000000000000000000000000000037
:104980000000000000000000000000003FC0003FE9
:10499000C00030C00030C00030C00030C00030C0A7
:1049A0000030C00030C00030C00030C00030C00057
:1049B000E0C000C0C00000000000000000000000D7
:1049C00000000000000000000000000000000000E7
:1049D00000400400701C00783C00682C00682C002B
:1049E0006C6C006C6C00644C00644C0066CC006223
:1049F0008C00638C00638C00638C0000000000005E
:104A000000000000000000000000000000000000A6
:104A10000000000000006030006030006030006086
:104A200030006030006030007FF0007FF0006030C8
:104A300000603000603000603000603000603000A6
:104A40000000000000000000000000000000000066
:104A500000000000000000000000000380000FE0E4
:104A600000183000301800200800600C00600C00B6
:104A7000600C00600C002008003018001830000F97
:104A8000E0000380000000000000000000000000C3
:104A90000000000000000000000000000000000016
:104AA0007FF0007FF0006030006030006030006018
:104AB00030006030006030006030006030006030F6
:104AC0000060300060300060300000000000000036
:104AD00000000000000000000000000000000000D6
:104AE00000000000003F80003FE0003060003030F8
:104AF000003030003030003060003FE0003F800088
:104B000030000030000030000030000030000000B5
:104B10000000000000000000000000000000000095
:104B2000000000000000000000000380000FE00013
:104B300018300030100020000060000060000060AD
:104B400000006000002018003010001820001FE056
:104B50000007C0000000000000000000000000008E
:104B60000000000000000000000000000000007FC6
:104B7000E0007FE0000600000600000600000600DE
:104B80000006000006000006000006000006000007
:104B90000600000600000600000000000000000003
:104BA0000000000000000000000000000000000005
:104BB00000000000401000202000302000104000C5
:104BC0001840000880000C8000050000070000026B
:104BD00000000200000400003C000038000000005B
:104BE00000000000000000000000000000000000C5
:104BF00000000000000000000003000003000007A8
:104C000080001FE000333000631800631800631851
:104C1000006318003330001FE0000780000300002D
:104C20000300000000000000000000000000000081
:104C300000000000000000000000000000003060E4
:104C40000030600018C0000D80000D8000070000DB
:104C50000200000700000D800018C00018C00030DE
:104C600060006030006030000000000000000000C4
:104C70000000000000000000000000000000000034
:104C80000000003030003030003030003030003074
:104C90003000303000303000303000303000303004
:104CA000003030003030003FFC003FFC00000C00C2
:104CB000000C00000C00000C0000000000000000D0
:104CC00000000000000000006060006060006060A4
:104CD0000060600060600060600060600030600044
:104CE0003FE0000E60000060000060000060000017
:104CF0006000000000000000000000000000000054
:104D000000000000000000000000000000618600BC
:104D100061860061860061860061860061860061AF
:104D2000860061860061860061860061860061867A
:104D3000007FFE007FFE0000000000000000000079
:104D40000000000000000000000000000000000063
:104D500000006186006186006186006186006186D0
:104D600000618600618600618600618600618600C0
:104D70006186006186007FFF007FFF000003000066
:104D8000030000030000030000000000000000001A
:104D900000000000000000FC0000FC00000C00000F
:104DA0000C00000C00000C00000FE0000FF8000CDD
:104DB00008000C0C000C0C000C08000FF8000FE0B1
:104DC00000000000000000000000000000000000E3
:104DD000000000000000000000000000300600306D
:104DE00006003006003006003006003006003F8620
:104DF000003FE60030260030360030360030260016
:104E00003FE6003F860000000000000000000000B8
:104E10000000000000000000000000000000000092
:104E20000030000030000030000030000030000092
:104E30003000003F80003FE0003020003030003084
:104E400030003020003FE0003F8000000000000004
:104E50000000000000000000000000000000000052
:104E60000000000000000700001FC000306000606C
:104E7000300000100000180003F80003F8000018CC
:104E8000000010006030003070001FE0000780005C
:104E90000000000000000000000000000000000012
:104EA0000000000000000000000000301C00307F07
:104EB0000030C18030C1803080803180C03F80C0F0
:104EC0003F80C03180C030808030C18030C18030B0
:104ED0007F00301C00000000000000000000000007
:104EE00000000000000000000000000000000000C2
:104EF0000FF0001FF0003030003030003030003054
:104F000030001FF0000FF0000430000C30001830AB
:104F10000018300030300060300000000000000059
:104F20000000000000000000000000000000000081
:104F30000000000000000000000000000000000071
:104F4000000E00003F00006180000380003F8000F1
:104F50003180006180006380003F80001C80000081
:104F60000000000000000000000000000000000041
:104F70000000000000000000000007C0001F8000CB
:104F80003000002000004600005F8000718000605B
:104F9000C00060C00060C00020C0003180001F80E1
:104FA000000E0000000000000000000000000000F3
:104FB00000000000000000000000000000000000F1
:104FC00000000000000000000000007E00007F00E4
:104FD000006180006180007E00007F000061800031
:104FE0006180007F00007E000000000000000000E3
:104FF00000000000000000000000000000000000B1
:1050000000000000000000000000000000000000A0
:105010007E00007E00006000006000006000006014
:105020000000600000600000600000600000000000
:105030000000000000000000000000000000000070
:105040000000000000000000000000000000000060
:1050500000000000001F80001F80001180001180F0
:1050600000118000218000218000218000FFE000ED
:10507000FFE000C06000C06000C0600000000000F1
:105080000000000000000000000000000000000020
:10509000000000000000000000000E00003F800043
:1050A0003180006080007FC0007FC0006000003061
:1050B00080003F80000E00000000000000000000A3
:1050C00000000000000000000000000000000000E0
:1050D000000000000000000000000000000000C30D
:1050E0000C00E31C003330001320000FC0001B60D5
:1050F00000333000231000631800C30C00000000D0
:10510000000000000000000000000000000000009F
:10511000000000000000000000000000000000008F
:10512000000000001C00003E0000630000030000BF
:105130000E00000E00000300006300003E00001C93
:10514000000000000000000000000000000000005F
:10515000000000000000000000000000000000004F
:105160000000000000000000006180006380006318
:105170008000658000658000698000698000718022
:10518000007180007180000000000000000000003D
:10519000000000000000000000000000000000000F
:1051A00000001100000A00000400000000006180FF
:1051B0000063800063800065800065800069800076
:1051C0006980007180007180007180000000000023
:1051D00000000000000000000000000000000000CF
:1051E00000000000000000000000000000000000BF
:1051F00000000063000063000064000064000078A9
:1052000000006800006400006400006300006300A8
:10521000000000000000000000000000000000008E
:10522000000000000000000000000000000000007E
:1052300000000000000000003F80003F800031803F
:1052400000318000318000318000318000318000E9
:10525000F18000E18000000000000000000000007C
:10526000000000000000000000000000000000003E
:10527000000000000000000000000000007070004E
:1052800070700068700068B00068B00068B0006DB1
:10529000300065300067300067300000000000001B
:1052A00000000000000000000000000000000000FE
:1052B00000000000000000000000000000000000EE
:1052C00000006180006180006180006180007F805B
:1052D000007F80006180006180006180006180004B
:1052E00000000000000000000000000000000000BE
:1052F00000000000000000000000000000000000AE
:10530000000000000000000E00003F80003180001F
:1053100060C00060C00060C00060C0003180003F1D
:1053200080000E00000000000000000000000000EF
:10533000000000000000000000000000000000006D
:105340000000000000000000000000007F00007F5F
:10535000000063000063000063000063000063005E
:105360000063000063000063000000000000000014
:10537000000000000000000000000000000000002D
:10538000000000000000000000000000000000001D
:10539000006600006F800071800060C00060C00087
:1053A00060C00060C0007180007F80006600006007
:1053B00000006000006000006000000000000000CD
:1053C00000000000000000000000000000000000DD
:1053D0000000000000000E00003F0000318000606F
:1053E00000006000006000006000003180003F00AD
:1053F000000E00000000000000000000000000009F
:10540000000000000000000000000000000000009C
:105410000000000000000000000000FF0000FF008E
:105420000018000018000018000018000018000004
:105430001800001800001800000000000000000024
:10544000000000000000000000000000000000005C
:10545000000000000000000000000000000000004C
:10546000C180004100006100002300002200001202
:1054700000001600000E00000C00000C00000C00E4
:10548000001800007800006000000000000000002C
:105490000000000000000000000180000180000109
:1054A00080000180000DB8003FFC00318C00618657
:1054B00000618600618600618600318C003FFC003F
:1054C0000DB000018000018000018000018000001B
:1054D00000000000000000000000000000000000CC
:1054E0000000000000000000000041000063000018
:1054F0002200001400001C00001C00001C00002200
:1055000000006300004100000000000000000000F7
:10551000000000000000000000000000000000008B
:10552000000000000000000000000000000000601B
:10553000C00060C00060C00060C00060C00060C00B
:105540000060C00060C0007FE0007FE000006000FD
:10555000006000006000006000000000000000002B
:10556000000000000000000000000000000000003B
:1055700000000000618000618000618000618000A7
:105580006180003F80001D800001800001800001DB
:10559000800000000000000000000000000000008B
:1055A00000000000000000000000000000000000FB
:1055B0000000000000000000006318006318006392
:1055C000180063180063180063180063180063185C
:1055D000007FF8007FF800000000000000000000DD
:1055E00000000000000000000000000000000000BB
:1055F0000000000000000000000000000000631830
:105600000063180063180063180063180063180033
:105610006318006318007FFC007FFC00000C000092
:105620000C00000C00000C00000000000000000056
:10563000000000000000000000000000000000006A
:105640000000007C00007C00000C00000C00000F3B
:1056500080000FC0000C60000C60000FC0000F80C5
:10566000000000000000000000000000000000003A
:10567000000000000000000000000000000000002A
:1056800000000000000000006018006018006018B2
:10569000007E18007F980060D80060D80060D800B5
:1056A0007F98007E1800000000000000000000004D
:1056B00000000000000000000000000000000000EA
:1056C000000000000000000000000000006000007A
:1056D0006000006000007E00007F800060C000600D
:1056E000C00060C0007F80007E000000000000005D
:1056F00000000000000000000000000000000000AA
:105700000000000000000000000000000000000099
:1057100000001C00003F00006100000180000F80BD
:10572000000F80000180006100003F00001E0000AB
:105730000000000000000000000000000000000069
:105740000000000000000000000000000000000059
:105750000000000000000061C00067F0006630003B
:105760006C18007C18007C18006C1800663000670C
:10577000F00061C000000000000000000000000018
:105780000000000000000000000000000000000019
:105790000000000000000000000000001F80003F2B
:1057A00080006180006180003F80001F80001180C8
:1057B00000318000218000618000000000000000B6
:1057C000000000000000000000020E1122E00000B6
:1057D00000000000000000000000000000000000C9
:1057E00000000000000000000000000000000000B9
:1057F00000400040004000400040004000400040A9
:105800000000004000000000000000000000000058
:105810000000005000500050000000000000000098
:105820000000000000000000000000000000000078
:105830000000000000120012002200FF00240024DB
:1058400000FF004800480048000000000000000081
:1058500000000000000000380054005000500070AC
:10586000001C001400540054003800100000000018
:105870000000000000000000003080490049004A9C
:1058800000320004C005200920092010C0000000DB
:1058900000000000000000000000001800240024A8
:1058A00000240018003000490045004600398000FF
:1058B0000000000000000000000000000040004068
:1058C0000040000000000000000000000000000098
:1058D00000000000000000000000000000000010B8
:1058E00000200020004000400040004000400040F8
:1058F0000040002000200010000000000000000018
:1059000000800040004000200020002000200020F7
:105910000020002000400040008000000000000047
:105920000000002000F800200050000000000000EF
:105930000000000000000000000000000000000067
:105940000000000000000000000800080008007FC0
:10595000000800080008000000000000000000002F
:105960000000000000000000000000000000000037
:1059700000000000000000000020002000200000C7
:105980000000000000000000000000000000000017
:105990000000000000E00000000000000000000027
:1059A00000000000000000000000000000000000F7
:1059B00000000000000000000000000000400000A7
:1059C00000000000000000000000000000100010B7
:1059D00000200020002000400040004000800080A7
:1059E000000000000000000000000000000000783F
:1059F0000084008400840084008400840084008487
:105A0000007800000000000000000000000000001E
:105A100000100030005000100010001000100010A6
:105A20000010001000000000000000000000000056
:105A30000000007800840004000400040008001046
:105A40000020004000FC00000000000000000000FA
:105A50000000000000780084000400040038000406
:105A60000004000400840078000000000000000032
:105A7000000000000000000800180018002800289E
:105A80000048004800FC000800080000000000007A
:105A90000000000000000000007C0040004000808A
:105AA00000F8008400040004008400780000000076
:105AB000000000000000000000000078008400806A
:105AC000008000B800C400840084008400780000D6
:105AD00000000000000000000000000000FC0008C2
