:020000040800F2
:10000000F821002091010008AF1400089F0A0008A1
:10001000AD1400088B040008EB1600080000000077
:100020000000000000000000000000004116000871
:10003000A504000800000000B114000843160008E1
:10004000AB010008AB010008AB010008AB010008E0
:10005000AB010008AB010008AB010008AB010008D0
:10006000AB010008AB010008AB010008AB010008C0
:10007000AB010008AB010008AB010008AB010008B0
:10008000AB010008AB010008AB010008AB010008A0
:10009000AB010008AB010008AB010008AB01000890
:1000A000AB010008AB010008AB010008AB01000880
:1000B000AB010008AB01000800000000AB01000824
:1000C000AB0100080000000000000000AB010008C8
:1000D00000000000AB010008AB01000800000000B8
:1000E000AB010008AB010008AB01000800F002F80A
:1000F00000F03FF80AA090E8000C82448344AAF183
:100100000107DA4501D100F034F8AFF2090EBAE880
:100110000F0013F0010F18BFFB1A43F0010318473B
:10012000D8740000F8740000103A24BF78C878C171
:10013000FAD8520724BF30C830C144BF04680C60ED
:10014000704700000023002400250026103A28BF35
:1001500078C1FBD8520728BF30C148BF0B60704739
:10016000782900F08380002070471FB51FBD10B5AF
:1001700010BD00F050F91146FFF7F7FF01F0B6FB94
:1001800000F06EF903B4FFF7F2FF03BC00F076F95C
:100190000948804709480047FEE7FEE7FEE7FEE71B
:1001A000FEE7FEE7FEE7FEE7FEE7FEE70448054957
:1001B000054A064B70470000E9160008ED000008EC
:1001C000F8180020F8210020F81B0020F81B002060
:1001D0000FB41CB50C0007AA009001D02044401EAB
:1001E000074B7B4469460190069800F0F4F8002C18
:1001F00003D06946002000F001F91CBC5DF814FB37
:10020000210200002DE9F0410E4604460020206244
:100210002046E168884730B3252805D0D4E901217C
:100220009047206A401CF2E7E16820460027884793
:10023000050018D0A5F14100192802D820354FF447
:1002400000673246294620462760FFF789FF40B104
:10025000012804D0F61D26F007060836D8E7361D1B
:10026000D6E72846DAE7206ABDE8F08170B5044693
:100270000D4621461068AFF300802188090502D59C
:100280000F4A7A4402E00E4A7A440E32002104F109
:10029000240305E000F00F060009965D5E54491C3A
:1002A0000028F7D120780023000704D5702D02D054
:1002B00009B1022311322046BDE8704000F02CB88D
:1002C000477300004FF0000200B51346944696466F
:1002D000203922BFA0E80C50A0E80C50B1F1200159
:1002E000BFF4F7AF090728BFA0E80C5048BF0CC007
:1002F0005DF804EB890028BF40F8042B08BF704765
:1003000048BF20F8022B11F0804F18BF00F8012BD6
:1003100070477047704770472DE9F0470D46994682
:100320009246044600F124080168880604D5E06975
:1003300021F01001216000E00120A84201DD471BEF
:1003400000E00027A1697A1902EB0900081AA061F0
:100350002078C00602D42046AFF30080002608E0D3
:10036000D4E901211AF806009047206A401C761C47
:1003700020624E45F4DB2078C0060AD52046AFF354
:10038000008006E0D4E9012130209047206A401C1B
:100390002062381EA7F10107F4DC07E0D4E901214F
:1003A00018F805009047206A401C2062281EA5F11D
:1003B0000105F3DC2046AFF300802078000602D56B
:1003C0000220BDE8F0870120FBE7000001694A1C1C
:1003D00002610878704700B58FB0CDE90131002186
:1003E000059105497944CDE9031011466846FFF7A8
:1003F00009FF0FB000BD0000E5FFFFFF0A6802F82B
:10040000010B0A607047D1E900239A4202D2531CC3
:100410000B6010707047754600F02CF8AE46050072
:100420006946534620F00700854618B020B5FFF70F
:10043000BDFEBDE820404FF000064FF000074FF032
:1004400000084FF0000B21F00701AC46ACE8C009F2
:10045000ACE8C009ACE8C009ACE8C0098D467047FB
:1004600010B50446AFF300802046BDE81040FFF70A
:1004700089BE0000004870479418002001491820E8
:10048000ABBEFEE7260002007047FEE700200449ED
:10049000FF224FF4C0530A54401C9842FBDB7047C4
:1004A0002C000020704772B6FEE700280CD0FF2811
:1004B0000BD07E280CD0F8280DD01F2804D0FE28A1
:1004C0000CD0EE280DD0002070474FF6FF7070471B
:1004D0004FF4FC6070474FF4784070474FF6E0707F
:1004E000704748F23040704770B5044600F0EEF8AF
:1004F0000546601C02D004480078044400F0E6F889
:10050000401BA042FAD370BD1C0000202DE9F84F1B
:10051000DFF89C91002409F1040A0AF1040B234638
:100520000F270BF1040EBBE00125A5402A40AA428B
:1005300076D1DFF880C14E68A6EB0C0866452BD05B
:100540000DDC032E34D005DC36B3012E19D0022E7B
:100550002FD11BE0112E16D0122E2AD119E0B8F59A
:10056000881F19D006DCB8F5803F15D0B8F5801F7C
:100570001FD111E0B8F5001F0ED0B8F5041F18D137
:100580000AE0CB6815E0CB681B1D12E0CB6808338E
:100590000FE0CB680C330CE08B682BB1012B4FF0D4
:1005A000080303D0456104E0042302E0056100E094
:1005B0000023FF2A01D8064601E000F104064FEAB5
:1005C000840501D9A5F12005D6F8008007FA05FCBD
:1005D00028EA0C0803FA05F548EA0508C6F8008081
:1005E0004D68ED005BD5344DAE6946F00106AE6155
:1005F000AD6924F0030605F0010500952F4D06EBCB
:10060000050CDCF80850A607360F07FA06F825EAAD
:100610000805DFF8AC80404503D14FF0000810E03A
:100620003DE0DFF8A080404502D14FF0010808E02E
:10063000DFF89480404502D14FF0020801E04FF00E
:10064000030808FA06F848EA0508CCF808804D685F
:10065000D9F80060ED034D4601D5164300E09643FE
:100660002E604D68DAF80060AD03554601D516439B
:1006700000E096432E604D68DBF80060ED025D46B9
:1006800001D5164300E096432E604D68DEF8006009
:10069000AD02754601D5164300E096432E60641CFA
:1006A0000A6832FA04F57FF43FAFBDE8F88F000026
:1006B0000004014000001110001002400000014041
:1006C00000080140000C0140001001400148806812
:1006D000704700001C000020024881680278114425
:1006E000816070471C000020074810B5016841F088
:1006F00010010160032000F067F80F2000F006F8F9
:1007000000F024F8002010BD0020024070B50D4D0F
:1007100004464FF47A712878B1FBF0F00A49096871
:10072000B1FBF0F000F0A7F948B9102C07D2002275
:100730002146501E00F028F800206C6070BD01209A
:1007400070BD00001C000020280000200C4808B5E7
:10075000816941F001018161816901F0010100912C
:10076000C16941F08051C161C06900F080500090C2
:100770000448416821F0E06141F00071416008BD2A
:100780000010024000000140F0B40E4B1B680C4604
:10079000C3F30223C3F10705042D00D90425191D55
:1007A000072901D2002300E0DB1E012606FA05F12D
:1007B000491E214099409E40761E16403143F0BCB0
:1007C00000F0A4BF0CED00E0064900F00702086845
:1007D0004FF6FF03184040EA0220034A1043086026
:1007E000704700000CED00E00000FA0570B5040051
:1007F00009D0606A002540B125616561A56294F861
:10080000510040B10CE0012070BD6068B0F5827FFE
:10081000F4D0E561F2E784F85050204600F040F84B
:10082000022084F851002068016821F04001016035
:10083000A088218900F4827001F404410843A18951
:1008400001F400610843217C01F002010843217D8D
:1008500001F001010843218B01F400710843217F5D
:1008600001F03801084394F8201001F0800108439A
:10087000218D01F40051084321680860A06904211A
:1008800001EA1040216848602068C16921F40061D4
:10089000C1616565012084F85100002070BD000031
:1008A00000B585B00021009101910291039100688B
:1008B0001349884221D11348816941F480518161F3
:1008C000816901F480510491816941F008018161DD
:1008D0008069694600F008000490282000900220FA
:1008E0000190032003900848FFF710FE0748416875
:1008F00041F0E06141F00101416005B000BD000040
:100900000030014000100240000C01400000014096
:100910002DE9F84F044690F8500000271D46164672
:10092000894601280DD04FF0010B84F850B0FFF735
:10093000CDFE804694F85100BA46012804D0022723
:1009400093E00220BDE8F88FB9F1000F73D0002EBC
:1009500071D0032084F85100C4F854A0C4F830903A
:10096000A686E686C4F838A0A4F83CA0A4F83EA069
:10097000C4F844A0C4F840A0A068B0F5004F09D165
:100980002068016821F0400101602068016841F49D
:100990008041016020680168490603D4016841F084
:1009A00040010160E068B0F5006F606803D030B3CB
:1009B000012E24D041E008B1012E1CD1206B21680A
:1009C0000088C86006E020688168890709D5216B26
:1009D0000988C160206B801C2063E08E401EE08689
:1009E00009E0FFF773FEA0EB0800A84202D3681CE1
:1009F00001D031E07DB3E08E0028E4D120E0206B0F
:100A000021680078087306E020688168890709D5A5
:100A1000216B09780173206B401C2063E08E401E1F
:100A2000E0860AE0FFF752FEA0EB0800A84203D3DD
:100A3000681C02D010E017E06DB1E08E0028E3D111
:100A400042462946204600F08FFD08B1202060650F
:100A5000A06818B106E0FFE7032706E02068C16838
:100A600080680090606D00B1012784F851B084F86F
:100A700050A0384666E710B5401EB0F1807F01D324
:100A8000012010BD4FF0E02460610F21601700F0DD
:100A90003DFE0020A06107202061002010BDFEE780
:100AA00010B5112000F022FE0520FFF71DFD2620C5
:100AB00000F01CFE042000F021FEB12000F016FE24
:100AC0000B2000F01BFE142000F018FEC02000F0E8
:100AD0000DFE082000F012FE052000F00FFEC120E0
:100AE00000F004FE022000F009FEC52000F0FEFD2B
:100AF000442000F003FE482000F000FEC72000F074
:100B0000F5FDC22000F0FAFD3A2000F0EFFD0520CF
:100B100000F0F4FD2A2000F0E9FD002000F0EEFDD9
:100B2000002000F0EBFD002000F0E8FD7F2000F049
:100B3000E5FD2B2000F0DAFD002000F0DFFD0020B5
:100B400000F0DCFD002000F0D9FD9F2000F0D6FD74
:100B5000362000F0CBFDC82000F0D0FDB72000F01B
:100B6000C5FD002000F0CAFDF22000F0BFFD01200D
:100B700000F0C4FDE02000F0B9FD3F2000F0BEFD14
:100B8000252000F0BBFD212000F0B8FD242000F05E
:100B9000B5FD1D2000F0B2FD0D2000F0AFFD4C2092
:100BA00000F0ACFDB82000F0A9FD382000F0A6FD53
:100BB000172000F0A3FD0F2000F0A0FD082000F09A
:100BC0009DFD042000F09AFD022000F097FD00201A
:100BD00000F094FDE12000F089FD002000F08EFD82
:100BE0001A2000F08BFD1E2000F088FD0B2000F085
:100BF00085FD122000F082FD122000F07FFD3320E1
:100C000000F07CFD472000F079FD472000F076FDE4
:100C1000082000F073FD202000F070FD272000F078
:100C20006DFD3C2000F06AFD3D2000F067FD3F2097
:100C300000F064FDBDE81040292000F057BD000021
:100C40002DE9F74F82B0002002998246602905D82D
:100C50000399402902D8202A05D007D24FF000007E
:100C600005B0BDE8F08F4FF00A00F9E7A2F12002CD
:100C7000DFF81C91D1B20491D9F800204FF00007A1
:100C8000117892F802B0884601FB0BF1019178E0EF
:100C900003994FF00006394489B200916EE000BF1D
:100CA0004FF6FF7101EAC6030299019A01EBC601F2
:100CB0008CB2049901FB02F107FB0812D9F800106D
:100CC0003144555C290607D5B9F80400009982B271
:100CD000204600F049FD581C690608D5B9F8040003
:100CE000009982B2601C80B200F03EFD981CA906FB
:100CF00008D5B9F80400009982B2A01C80B200F0B7
:100D000033FDD81CE90608D5B9F80400009982B271
:100D1000E01C80B200F028FD181D290708D5B9F89D
:100D20000400009982B2201D80B200F01DFD581D04
:100D3000690708D5B9F80400009982B2601D80B235
:100D400000F012FD981DA90708D5B9F80400009914
:100D500082B2A01D80B200F007FDD81DE90709D0BE
:100D6000B9F80400E41D82B2A0B2009900F0FCFCC6
:100D700003F10800504500D98246761C46458FD3C2
:100D80007F1C5F4584D30AEBDA00401C68E7000053
:100D9000000000202DE9F04100213F235F2208469A
:100DA00000F0C8FE2C2000F0A1FC0B4D00244FF4F5
:100DB000C056285DFFF779FB0746000A00F09EFC4D
:100DC000F8B200F09BFC641CB442F2DBBDE8F041D9
:100DD000002000F08BBC00002C000020014AC2E97A
:100DE0000001704700000020F0B516460D4604468D
:100DF0000C4F12E0602C05D3386800246D1E8078FB
:100E0000284485B2402D01D300242546294620469A
:100E1000FFF716FF204484B2761C3278002AE9D10D
:100E2000F0BD000000000020044908B58A690243B3
:100E30008A6189690140009108BD000000100240EC
:100E4000044908B58A6902438A61896901400091B1
:100E500008BD000000100240044908B58A69024339
:100E60008A6189690140009108BD000000100240BC
:100E7000F0B50A68C2F30F2595FAA5F2B2FA82F32B
:100E800069E001229A402A4264D0082B03D240F242
:100E900001129A4006E0A3F108024FF001149440B9
:100EA00044F080624C68082C0BD10C69C668170AA4
:100EB00097FAA7F7B7FA87F726EA1226BC40264327
:100EC000C66092FAA2F700EB1264B7FA87F74FEA0E
:100ED000870C0F27266807FA0CF7BE4392FAA2F791
:100EE000D1F804E0B7FA87F7BF000EFA07FE46EA2A
:100EF0000E0626604F68012F01D0092F2AD192FAE1
:100F0000A2F7B7FA87F74FEA870C032707FA0CF71F
:100F1000BE4392FAA2F7B7FA87F7D1F808E0BF000C
:100F20000EFA07FE92FAA2FC46EA0E06BCFA8CFC08
:100F30004FEA8C0E4FF0040C26600CFA0EFC92FA6D
:100F4000A2F2B2FA82F2CF68920026EA0C0697402B
:100F50003E4326605B1C35FA03F292D10020F0BDBF
:100F60008068090A81430804000C01D00020704702
:100F70000120704700B5034600F0C6FA186000F083
:100F800099FA586000F0A4FA9860586800F0AEFA38
:100F9000D86000BD014908607047000028000020AB
:100FA00010B501291CD004291CD010291CD04029BF
:100FB0001CD0B1F5807F1BD0B1F5806F1AD006210F
:100FC0000D4B18305B5C184403680B4CE41D615CEE
:100FD00003248C40120CA3438A401343036010BDCA
:100FE0000021EDE70121EBE70221E9E70321E7E733
:100FF0000421E5E70521E3E7A075000810B5012904
:101000001CD004291CD010291CD040291CD0B1F5BB
:10101000807F1BD0B1F5806F1AD006210D4B1830A0
:101020005B5C184403680B4CE41D615CF0248C404D
:10103000120CA3438A401343036010BD0021EDE767
:101040000121EBE70221E9E70321E7E70421E5E7D6
:101050000521E3E7A075000810B5012916D0042981
:1010600016D0102916D0402916D0B1F5807F15D0A2
:10107000B1F5806F14D00623016A0A4CE35C0A24A0
:101080009C40A1439A401143016210BD0023F3E745
:101090000123F1E70223EFE70323EDE70423EBE766
:1010A0000523E9E7AE75000810B501291CD0042915
:1010B0001CD010291CD040291CD0B1F5807F1BD03A
:1010C000B1F5806F1AD006210D4B18305B5C1844C7
:1010D00003680B4CE41D615C0C248C40120CA34390
:1010E0008A401343036010BD0021EDE70121EBE7C7
:1010F0000221E9E70321E7E70421E5E70521E3E72A
:10110000A075000870B50268134B144C4FF0804571
:10111000984203D0A84201D0A04203D14E6822F0E9
:1011200070023243984203D0A84201D0A04203D1BA
:10113000CC6822F44072224302608A68C2620A8844
:101140008262984201D109690163416941F001015C
:101150004161002070BD0000002C014000040040EF
:101160002DE9FF410446C0680D460126C0F340301A
:10117000E8BBE9686868E2680843296941F20C63E2
:101180009A4311430843E060A868216921F4405163
:10119000014321616869616921F440710143616122
:1011A0006846FFF7E7FE2248844201D1039803E036
:1011B0002048844238D10298C8B12968B9B100EBFF
:1011C000C00202EB00128900B2FBF1F36420B3FB12
:1011D000F0F3B2FBF1F56FF018077B43002605EB47
:1011E0008305322303EB0515B5FBF0F500E01BE0AA
:1011F000B2FBF1F7B7FBF0F705F0F00505EB0715CB
:10120000B2FBF1F7B2FBF1F1B1FBF0F16FF01802B4
:10121000514307EB810103EB0111B1FBF0F000F04A
:101220000F00284480B2A06004B03046BDE8F081D1
:1012300000380140004400402DE9F04786B01421F9
:101240006846FFF73FF81020FFF7EEFD2020FFF77C
:10125000EBFD0420FFF7E8FD0820FFF7E5FD1D4842
:101260001B4A4FF4005141611C4FDFF86C9049F26A
:10127000F0017961DFF86C80DFF864A040F612437A
:10128000C8F8143000240125022603948DE8640078
:101290006946FFF7EDFD40F60E60009008200190D2
:1012A000694604943846FFF7E3FDCDE90264CDE9D1
:1012B000009569463846FFF7DBFDCDE90264CDE9CC
:1012C00000A569464046FFF7D3FD06B0BDE8F087AC
:1012D0002000200400100140F0F0900400080140BC
:1012E0001E120C04000C0140104810B50E4901609C
:1012F0004FF48271416000218160C1604FF400723F
:101300000161C0E905121022C0E907214162816232
:101310000A21C162FFF76AFA002803D0BDE8104035
:10132000FFF7C1B810BD0000003001403C1800209C
:1013300030B58BB014216846FEF7C4FF142105A810
:10134000FEF7C0FF4FF40060FFF77AFD0420FFF7BF
:1013500077FD2A480590082006900120099005A9EC
:101360002748FFF785FD274CA06820F0070040F0D4
:101370000100A0604FF480352A4601212046FFF786
:101380000FFE002201212046FFF78EFE2A010121D7
:101390002046FFF733FE002201212046FFF75CFEC6
:1013A0002A4610212046FFF7FBFD0022102120468F
:1013B000FFF77AFE6A0110212046FFF71FFE002288
:1013C00010212046FFF748FE0020ADF80000691EFE
:1013D000CDE901010390049069462046FFF792FE93
:1013E000206820F080002060606820F0700060605D
:1013F000A06820F08000A0600BB030BD03000304A3
:1014000000080140002C014030B58DB01C21684619
:10141000FEF758FF142107A8FEF754FF4FF4804051
:10142000FFF71AFD0820FFF717FD44F24000079070
:101430000920089003200024CDE90904174D07A9CD
:101440002846FFF715FD48F2800007900420089019
:1014500007A92846FFF70CFD11484168114A1143BE
:1014600041604FF4E130CDE900040C200294CDE955
:101470000340059406940C4C69462046FFF770FE25
:10148000206920F490402061606920F02A006061AA
:10149000E06840F40050E0600DB030BD000C014049
:1014A000000001400400000700380140FEE7FEE7AD
:1014B0007047000004494968044A01F0F001090935
:1014C000515CC8407047000000100240B57500082C
:1014D00004494968044A01F4E06102EB11210978EA
:1014E000C840704700100240C575000804494968AB
:1014F000044A01F4605102EBD1210978C8407047D9
:1015000000100240C57500080648406810F00C0144
:10151000054805D0042903D0082901D100F006B8F8
:10152000704700000010024000127A000B4841682A
:1015300011F480320A4909D0B2F5803F06D14168E2
:10154000084AC1F34041491CB2FBF1F14068022254
:1015500000F4701002EB90404843704700100240C6
:1015600000093D0000127A0038B50B46009204468F
:101570000022802100F008F8002804D0606D40F0BF
:1015800020006065032038BD2DE9F8431E469146D2
:1015900088460446089DFFF799F8401B351AFFF767
:1015A00095F8074625480068C0F3CB30684338E01B
:1015B000701C37D0FFF78AF8C01BA84203D215B1C0
:1015C000009860B32CE02068416821F0E0014160A0
:1015D0006068B0F5827F0BD1A068B0F5004F02D0F3
:1015E000B0F5806F04D12068016821F040010160EE
:1015F000A06AB0F5005F09D12068016821F40051AC
:1016000001602068016841F400510160012084F804
:101610005100002084F850000320BDE8F883002525
:10162000401E00902068816838EA010004D0002143
:101630004945BDD10020F0E70121F9E7280000204D
:101640007047FFF749B80000244810B5016821F041
:10165000070141F002010160016801F00701022960
:10166000FAD11F48016841F4803101600168C1F37B
:1016700040410029FAD0416821F47C1141F4E8117D
:101680004160016841F0807101600168C1F340610F
:101690000029FAD0416821F0F0014160416821F44D
:1016A000E06141F480614160416821F46051416032
:1016B000416821F0030141F002014160416801F0FD
:1016C0000C010829FAD10748FFF764FC0F20FFF747
:1016D0001DF8002801D072B6FEE710BD00200240C0
:1016E0000010024000A24A047047FEE7024A10219F
:1016F000516100F02FB80000000C0140024A102197
:10170000116100F027B80000000C01400907090E24
:10171000002804DB00F1E02080F80014704700F09E
:101720000F0000F1E02080F8141D7047084847F6CC
:10173000F8714162016A41F001010162016A41F000
:1017400010010162016841F0010101607047000071
:10175000002C014001B501231A4669460148FFF7F4
:10176000D7F808BD3C18002001EB410100EB411007
:10177000014980B20A5470472C0000202DE9F04145
:101780000646050A00213F235F22084600F0D2F9F1
:101790002C20FFF7ABFF00244FF4C0572846FFF77B
:1017A000ADFFF0B2FFF7AAFF641CA4B2BC42F5D3B0
:1017B000BDE8F0410020FFF799BF000070B50C4C68
:1017C0004FF480506061C50065610520FEF78CFE16
:1017D00025610520FEF788FEFFF762F9002000F082
:1017E00009F8BDE870404FF6FF70FFF7C7BF000073
:1017F0000008014010B558B101280ED0022811D1BF
:101800003620FFF773FF0020BDE81040FFF776BFDA
:101810003620FFF76BFF6020F6E73620FFF766FF04
:10182000C020F1E710BD00002DE9F0412C48416ACD
:101830002C48C160C16847F6FF72491E89B2511A2F
:1018400001EBD1714910C160C1688268914228D012
:10185000C16882688E1AC1688160234C0227E51432
:101860004FF48068002E1CD01DDA2761C4F8108068
:101870004FF00500FEF738FE06EB860607E0032072
:10188000FEF732FE65610320FEF72EFE761C002E69
:101890002561F4DBC4F814800320FEF725FE6561A2
:1018A0006761BDE8F0812761C4F814800520FEF768
:1018B0001BFE06EB860607E00320FEF715FE6561BA
:1018C0000320FEF711FE761E002E2561F4DCC4F81D
:1018D00010800320FEF708FE65616761E1E7000004
:1018E000002C014008000020000C0140FEF7FCFE27
:1018F000FFF7AAFEFFF7A0FCFFF786FDFFF7F4FC59
:10190000FFF716FDFFF712FFFFF758FFFEF7BEFDCA
:1019100000211F48FFF762FA1EA200210520FFF7F1
:1019200063FAFFF737FA1E4D4FF40058C5F81480DC
:101930001C4829150161022141611B4900201B4FF0
:1019400008800E1F5FF00004FFF76EFF00F034F810
:101950003061031E0DD016A210211648FEF738FC88
:10196000FEF794FD134A0A210320FFF73DFAFFF723
:1019700011FA641CBC42E7D3E9684FF48420884321
:101980000004000C404601D02861DBE76861D9E71C
:10199000801B000873746172742E2E2E00000000EC
:1019A00000100140000C01400C000020FFFF060069
:1019B000257800002C1800202DE9F05F5B4C207882
:1019C00002275B4D4FF040084FF010094FF0800A9E
:1019D0004FF0200B261D28BB40F202212846FFF7BE
:1019E000BFFA01280ED040F204412846FFF7B8FAAA
:1019F00001281BD040F608012846FFF7B1FA01285C
:101A000029D03DE02770607830B1012806D0022847
:101A100006D0032834D106E0012030E008202EE073
:101A2000A6F800802CE04FF4007028E02770607862
:101A300030B1012806D0022807D0032820D107E0C2
:101A400037801DE0A6F800901AE0A6F800A017E085
:101A50004FF4806013E02770607830B1012806D021
:101A6000022807D003280BD107E0042007E0A6F8DE
:101A700000B005E04FF4807001E04FF4006030806A
:101A80002078022803D10120207032206080207845
:101A9000012808D1608810B16088401E02E0032050
:101AA0002070642060802078032818D1608810B1ED
:101AB0006088401E12E040F202212846FFF750FAEB
:101AC00058B940F204412846FFF74AFA28B940F6CF
:101AD00008012846FFF744FA50B16420608060781E
:101AE00058B101280FD0022814D0032810D117E0D4
:101AF000002020703088BDE8F09F01206070C5F89C
:101B000010B0484603E06770C5F810805846686119
:101B10000020F0E703206070C5F810A04046F6E70B
:101B200000206070C5F810905046F0E708000020D3
:101B3000000801402DE9F04104461D4616460F46B7
:101B40002A20FFF7D3FD0020FFF7D8FD2046FFF73E
:101B5000D5FD0020FFF7D2FD3046FFF7CFFD2B204B
:101B6000FFF7C4FD0020FFF7C9FD3846FFF7C6FDAB
:101B70000020FFF7C3FD2846BDE8F041FFF7BEBDDA
:101B8000020E1122E0000000000000000000000032
:101B90000000000000000000000000000000000045
:101BA0000000000000000000400040004000400035
:101BB00040004000400040000000400000000000E5
:101BC0000000000000000000000050005000500025
:101BD0000000000000000000000000000000000005
:101BE00000000000000000000000000012001200D1
:101BF0002200FF0024002400FF00480048004800A5
:101C0000000000000000000000000000000038009C
:101C100054005000500070001C0014005400540088
:101C2000380010000000000000000000000000006C
:101C30003080490049004A00320004C005200920D4
:101C4000092010C00000000000000000000000009B
:101C5000000018002400240024001800300049006F
:101C60004500460039800000000000000000000030
:101C700000000000400040004000000000000000A4
:101C80000000000000000000000000000000000054
:101C90000000000000001000200020004000400074
:101CA00040004000400040004000200020001000A4
:101CB0000000000000000000800040004000200004
:101CC00020002000200020002000200040004000D4
:101CD000800000000000000000002000F80020004C
:101CE00050000000000000000000000000000000A4
:101CF00000000000000000000000000000000000E4
:101D00000800080008007F00080008000800000024
:101D100000000000000000000000000000000000C3
:101D200000000000000000000000000000000000B3
:101D30002000200020000000000000000000000043
:101D4000000000000000000000000000E0000000B3
:101D50000000000000000000000000000000000083
:101D60000000000000000000000000000000000073
:101D70000000000040000000000000000000000023
:101D80000000000010001000200020002000400093
:101D900040004000800080000000000000000000C3
:101DA00000000000000078008400840084008400AB
:101DB000840084008400840078000000000000009B
:101DC0000000000000000000100030005000100073
:101DD00010001000100010001000100000000000A3
:101DE00000000000000000000000780084000400F3
:101DF000040004000800100020004000FC00000067
:101E000000000000000000000000000078008400D6
:101E1000040004003800040004000400840078007A
:101E200000000000000000000000000000000800AA
:101E3000180018002800280048004800FC0008008E
:101E4000080000000000000000000000000000008A
:101E50007C00400040008000F80084000400040082
:101E60008400780000000000000000000000000076
:101E700000007800840080008000B800C400840066
:101E800084008400780000000000000000000000D2
:101E900000000000FC0008000800100010002000F6
:101EA0002000400040004000000000000000000052
:101EB00000000000000078008400840084007800A6
:101EC000840084008400840078000000000000008A
:101ED00000000000000000007800840084008400FE
:101EE0008C007400040004008800700000000000F2
:101EF00000000000000000000000000000000000E2
:101F00004000000000000000000000004000000051
:101F100000000000000000000000000000000000C1
:101F20000000400000000000000000000000400031
:101F30004000400000000000000000000000000021
:101F4000000002000C003000400030000C000200D5
:101F50000000000000000000000000000000000081
:101F6000000000000000FE0000000000FE00000075
:101F70000000000000000000000000000000000061
:101F8000000000000000400030000C0002000C00C7
:101F900030004000000000000000000000000000D1
:101FA0000000000038004400440004000800100055
:101FB00020002000000020000000000000000000C1
:101FC0000000000000000F80304040204E909190B3
:101FD000A090A110A120A3209DC0401020601F80D0
:101FE00000000000000000000800140014001400AD
:101FF000220022007F0041008080808000000000DD
:10200000000000000000000000007E0041004100D0
:1020100041007E0041004100410041007E0000007F
:102020000000000000000000000000001C00220072
:1020300041004000400040004000410022001C00E0
:1020400000000000000000000000000000007C0014
:102050004200410041004100410041004100420076
:102060007C000000000000000000000000000000F4
:102070007F004000400040007F00400040004000E2
:1020800040007F0000000000000000000000000091
:1020900000007E004000400040007C004000400006
:1020A0004000400040000000000000000000000070
:1020B000000000001E0021004080400040004780DA
:1020C0004080408021001E00000000000000000051
:1020D00000000000000041004100410041007F007D
:1020E00041004100410041004100000000000000AB
:1020F00000000000000000004000400040004000E0
:10210000400040004000400040004000000000004F
:1021100000000000000000000000080008000800A7
:10212000080008000800080088008800700000000F
:10213000000000000000000000000000408041009E
:1021400042004400480058006400420041004080C2
:10215000000000000000000000000000000040003F
:10216000400040004000400040004000400040006F
:102170007E000000000000000000000000000000E1
:10218000404060C060C0514051404A404A404A40CF
:102190004440444000000000000000000000000037
:1021A0000000410061005100510049004900450014
:1021B0004500430041000000000000000000000056
:1021C000000000001E0021004080408040804080D0
:1021D0004080408021001E00000000000000000040
:1021E0000000000000007E0041004100410041006D
:1021F0007E00400040004000400000000000000061
:1022000000000000000000001E002100408040800F
:10221000408040804080468021001E8000000000F9
:10222000000000000000000000007E0041004100AE
:10223000410041007E004400420042004100000095
:102240000000000000000000000000003E0041000F
:1022500041004000380006000100410041003E00FE
:102260000000000000000000000000000000FE0070
:1022700010001000100010001000100010001000DE
:10228000100000000000000000000000000000003E
:102290004100410041004100410041004100410036
:1022A00022001C00000000000000000000000000F0
:1022B0000000808080804100410022002200140044
:1022C00014000800080000000000000000000000EA
:1022D000000000008208850845104510451028A020
:1022E00028A028A0104010400000000000000000BE
:1022F000000000000000820044004400280010009C
:10230000100028004400440082000000000000008B
:102310000000000000000000410022002200140024
:102320001400080008000800080008000000000071
:10233000000000000000000000007E000400080013
:10234000080010001000200020004000FE000000E7
:1023500000000000000000000000000060004000DD
:10236000400040004000400040004000400040006D
:1023700040004000600000000000000000008000FD
:10238000800040004000400020002000200010009D
:10239000100000000000000000000000000000002D
:1023A00060002000200020002000200020002000ED
:1023B000200020002000200060000000000000003D
:1023C0000000000020005000500050008800000075
:1023D00000000000000000000000000000000000FD
:1023E00000000000000000000000000000000000ED
:1023F000000000000000000000000000FE000000DF
:10240000000000000000400020000000000000006C
:1024100000000000000000000000000000000000BC
:102420000000000000000000000000000000380074
:10243000440004003C0044004C0034000000000054
:1024400000000000000000000000400040004000CC
:102450005800640044004400440044007800000038
:10246000000000000000000000000000000000006C
:1024700000003800440040004000400044003800A4
:102480000000000000000000000000000000040048
:102490000400040034004C004400440044004400A4
:1024A0003C000000000000000000000000000000F0
:1024B0000000000000003800440044007C004000A0
:1024C0004400380000000000000000000000000090
:1024D0000000300040004000E000400040004000AC
:1024E000400040004000000000000000000000002C
:1024F0000000000000000000000034004C00440018
:10250000440044004C003400040044003800000043
:10251000000000000000400040004000580064003F
:102520004400440044004400440000000000000057
:10253000000000000000000040000000000040001B
:10254000400040004000400040004000000000000B
:10255000000000000000000000004000000000003B
:10256000400040004000400040004000400040006B
:10257000400080000000000000000000400040001B
:1025800040004400480050007000480048004400EB
:1025900000000000000000000000000000004000FB
:1025A000400040004000400040004000400040002B
:1025B00040000000000000000000000000000000DB
:1025C0000000000000005980664044404440444000
:1025D00044404440000000000000000000000000F3
:1025E00000000000000000005800640044004400A7
:1025F000440044004400000000000000000000000F
:10260000000000000000000000003800440044000A
:1026100044004400440038000000000000000000B6
:1026200000000000000000000000000058006400EE
:102630004400440044006400580040004000400052
:102640000000000000000000000000000000340056
:102650004C004400440044004C00340004000400DA
:102660000400000000000000000000000000000066
:10267000500060004000400040004000400000006A
:10268000000000000000000000000000000000004A
:1026900000003800440040003800040044003800C6
:1026A000000000000000000000000000000000002A
:1026B00040004000E000400040004000400040007A
:1026C00020000000000000000000000000000000EA
:1026D00000000000000044004400440044004400A6
:1026E00044003C000000000000000000000000006A
:1026F000000000000000000088008800500050002A
:102700005000200020000000000000000000000039
:102710000000000000000000000088808880550054
:1027200055005500220022000000000000000000BB
:10273000000000000000000000000000440028002D
:1027400028001000280028004400000000000000BD
:102750000000000000000000000000000000440035
:10276000440028002800280010001000100010006D
:1027700060000000000000000000000000000000F9
:102780007C00040008001000200040007C000000D5
:1027900000000000000000000000000020004000D9
:1027A00040004000400040008000400040004000E9
:1027B0004000400020000000000000000000400039
:1027C0004000400040004000400040004000400009
:1027D0004000400040000000000000000000000039
:1027E00040002000200020002000200010002000D9
:1027F0002000200020002000400000000000000019
:102800000000000000000000000072009E000000B8
:1028100000000000000000000000000000000000B8
:1028200000000000000000003F0021002100210006
:102830002100210021003F000000000000000000F6
:10284000000000000000FE001000100010001F80BB
:1028500010401040104010401380000000000000A5
:1028600000000800100000007E0040004000400012
:1028700040004000400040004000400000000000D8
:102880000000000000000000000000000000000048
:1028900000000000000000000000000040004000B8
:1028A00040000000000000000000000010002000B8
:1028B0000000780040004000400040004000400020
:1028C0000000000000000000000000000000000008
:1028D00000000000000000000000000000000000F8
:1028E000A000A000A0000000000000000000000008
:1028F00000000000000000000000000000000000D8
:102900000000444000000000000000000000000043
:102910000000100010001000FE0010001000100059
:102920001000100010001000100000000000000057
:102930000000000010001000FE0010001000100049
:10294000100010001000FE00100010000000000039
:102950000000000000001E0020004000FE004000BB
:10296000FE004000400020001E00000000000000AB
:102970000000000000000000620094009400940039
:1029800068000B1814A414A414A423180000000059
:10299000000000000000000000003F0021002100B6
:1029A000210021F02108210821082108C1F00000A0
:1029B0000000000000000000000000000000000017
:1029C0000000000010002000400040002000100027
:1029D00000000000000000000000000000004200B5
:1029E0004200420042007FE042104210421042107A
:1029F00043E000000000000000000800100000009C
:102A00004300440044004800700048004400440073
:102A10004200410000000000000000000000000033
:102A20000000FE001000100010001F801040104039
:102A300010401040104000000000000000000000A6
:102A40000000000041004100410041004100410000
:102A50004100410041007F0008000800080000001C
:102A60000000000000004000F0004000580064003A
:102A700044004400440044004400040004000800F2
:102A80000000000000000000400040004000000086
:102A90000000000000000000000000000000000036
:102AA0000000000000000000000040004000400066
:102AB0000000000000000000000000000000000016
:102AC000000000000000000000000000A000A000C6
:102AD000A000000000000000000000000000000056
:102AE0000000000000000000000000000000500096
:102AF0005000500000000000000000000000000036
:102B000000000000000000000000000000000000C5
:102B10000000000000000000700070007000000065
:102B200000000000000000000000000000000000A5
:102B30000000000000000000000000000000FE0097
:102B40000000000000000000000000000000000085
:102B50000000000000000000000000000000000075
:102B6000FFF800000000000000000000000000006E
:102B7000000000000000000000003F0021002100D4
:102B800021002100210021003F0000000000000082
:102B900000000000000000007D1011B011B011B065
:102BA00011500000000000000000000000000000C4
:102BB0000000000000000000000000000000000015
:102BC0003E002200220023C022202220E3C0000079
:102BD00000000000000000000000000000000000F5
:102BE0000000000080004000200020004000800025
:102BF00000000000000000000000000000000000D5
:102C0000000000004400440044007F8044404440F1
:102C100047800000000000000000000000000000ED
:102C200010002000000044004800500060005000E8
:102C30004800440000000000000000000000000008
:102C400000004000F00040005800640044004400D0
:102C500044004400440000000000000000000000A8
:102C60000000000000000000000044004400440098
:102C70004400440044007C001000100010000000DC
:102C80000000000000000000000000000000000044
:102C90000000000000000000000000000000000034
:102CA000000014001C00000041004100220022002E
:102CB00014001400080008000800300000000000A4
:102CC00000000000000000000000280038000000A4
:102CD00044004400280028002800100010001000C4
:102CE0001000600000000000000000000800080064
:102CF000080008000800080008008800880070002C
:102D000000000000000000000000000000000000C3
:102D10000000000054002800440028005400000077
:102D2000000000000000000000000000040004009B
:102D30007C00400040004000400040004000400057
:102D40004000400000000000000000000000000003
:102D50000000400040004000400040000000000033
:102D60004000400040004000400000000000000023
:102D70000000000018002400200030004C00460035
:102D80006200360008000400440038000000000023
:102D90000000280000007F004000400040007F004D
:102DA00040004000400040007F00000000000000A4
:102DB00000000000000000003F0040809E40A14055
:102DC000A040A040A1409E4040803F000000000085
:102DD000000000000000000000001C002200410074
:102DE0004000780040004000410022001C0000002C
:102DF00000000000000000000000000000000000D3
:102E000000000000140028005000500028001400AA
:102E100000000000000000000000000000000000B2
:102E200000000000FE00020002000200000000009E
:102E30000000000000000000000000000000000092
:102E4000000000000000000000000000E0000000A2
:102E50000000000000000000000000000000000072
:102E600000003F0040809E40914091409E40924033
:102E7000914040803F000000000000000000000082
:102E8000A000000040004000400040004000400022
:102E90004000400040004000000000000000000032
:102EA0000000000000003000480048003000000032
:102EB0000000000000000000000000000000000012
:102EC00000000000000000000000000010001000E2
:102ED0001000FE00100010001000FE0000000000B6
:102EE0000000000000000000000040004000400022
:102EF0004000400040004000400040004000000012
:102F00000000000000000000000000004000000081
:102F100000004000400040004000400040004000F1
:102F20000000000000000000000000000000080099
:102F300008000800780040004000400040004000C9
:102F40004000000000000000000000000000000041
:102F5000000000000000440044004400440044001D
:102F600044007C00400040004000000000000000E1
:102F700000007E00F400F400F4007400140014005B
:102F800014001400140014001400000000000000DD
:102F900000000000000000000000000000004000F1
:102FA0000000000000000000000000000000000021
:102FB000000000000000000028000000380044006D
:102FC00044007C0040004400380000000000000085
:102FD00000000000000000004200620062705288A1
:102FE00052884A884A70460046F8420000000000B5
:102FF00000000000000000000000000000000000D1
:1030000038004400400070004000440038000000D8
:1030100000000000000000000000000000000000B0
:103020000000000050002800140014002800500088
:103030000000000000000000000000000000400050
:103040000000000040004000400040004000400000
:103050004000400040008000000000000000000030
:103060003E004100410040003800060001004100E0
:1030700041003E00000000000000000000000000D1
:10308000000000000000000038004400400038004C
:1030900004004400380000000000000000000000B0
:1030A000000000000000A0000000400040004000C0
:1030B0004000400040004000000000000000000010
:1030C000000000000000080014001400140022009A
:1030D00022007F004100808080800000000000000E
:1030E00000000000000000007E00400040004000A2
:1030F0007E0041004100410041007E0000000000D0
:10310000000000000000000000007E0041004100BF
:1031100041007E0041004100410041007E0000006E
:103120000000000000000000000000007E004000E1
:10313000400040004000400040004000400040008F
:1031400000000000000000000000000000003F0040
:103150002100210021002100210021004100410027
:10316000FF808080808000000000000000000000E0
:103170007F004000400040007F00400040004000D1
:1031800040007F0000000000000000000000000080
:103190000000C4602480248024801F0024802480B8
:1031A0004440444084200000000000000000000073
:1031B000000000003C00420002000400180004006F
:1031C0000200020042003C0000000000000000007D
:1031D000000000000000410043004300450049009A
:1031E0004900510061006100410000000000000042
:1031F000000014001C000000410043004300450093
:1032000049004900510061006100410000000000D8
:1032100000000000000000000000430044004400E3
:103220004800700048004400440042004100000093
:103230000000000000000000000000003F0021002E
:103240002100210021002100210021002100C100D6
:1032500000000000000000000000000000004040EE
:1032600060C060C0514051404A404A404A404440DA
:1032700044400000000000000000000000000000CA
:1032800041004100410041007F00410041004100F8
:1032900041004100000000000000000000000000AC
:1032A00000001E002100408040804080408040801F
:1032B000408021001E00000000000000000000000F
:1032C000000000007F00410041004100410041003A
:1032D00041004100410041000000000000000000EA
:1032E0000000000000007E0041004100410041005C
:1032F0007E00400040004000400000000000000050
:1033000000000000000000001C00220041004000FE
:10331000400040004000410022001C00000000006E
:1033200000000000000000000000FE00100010007F
:10333000100010001000100010001000100000001D
:1033400000000000000000000000000041004100FB
:1033500022002200140014000800080008003000B9
:103360000000000000000000000000000000040059
:103370001F002480444044404440444024801F00B7
:103380000400000000000000000000000000000039
:10339000820044004400280010001000280044006F
:1033A0004400820000000000000000000000000057
:1033B00000004080408040804080408040804080CD
:1033C000408040807FC0004000400040000000007E
:1033D00000000000410041004100410041003F0069
:1033E00001000100010001000000000000000000D9
:1033F0000000000000004440444044404440444039
:1034000044404440444044407FC00000000000006D
:10341000000000000000000044404440444044409C
:10342000444044404440444044407FE00020002069
:1034300000200000000000000000F000100010005C
:1034400010001F0010801080108010801F000000EE
:10345000000000000000000000000000404040406C
:10346000404040407C4042404240424042407C40DC
:10347000000000000000000000000000000040000C
:103480004000400040007C004200420042004200F8
:103490007C000000000000000000000000000000B0
:1034A0001C002200410001000F000100010041004A
:1034B00022001C00000000000000000000000000CE
:1034C000000043C0442048104810481078104810AD
:1034D0004810442043C0000000000000000000002D
:1034E000000000003F0041004100410041003F005A
:1034F0001100210021004100000000000000000038
:10350000000000000000000000000000380044003F
:1035100004003C0044004C003400000000000000A7
:1035200000000000000000003C0040004000580087
:1035300064004400440044004400380000000000DF
:10354000000000000000000000000000000000007B
:1035500078004400440078004400440078000000F3
:10356000000000000000000000000000000000005B
:103570000000780040004000400040004000400053
:10358000000000000000000000000000000000003B
:10359000000000003C00240024002400240044001B
:1035A000FE00820082000000000000000000000019
:1035B0000000000000003800440044007C0040008F
:1035C000440038000000000000000000000000007F
:1035D0000000000000000000C98049002A001C0013
:1035E0002A00490088800000000000000000000060
:1035F00000000000000000000000700088000800CB
:10360000300008008800700000000000000000008A
:1036100000000000000000000000000044004C001A
:103620004C005400640064004400000000000000EE
:1036300000000000000000002800380000004400E6
:103640004C004C0054006400640044000000000082
:10365000000000000000000000000000000000006A
:103660004400480050006000500048004400000042
:10367000000000000000000000000000000000004A
:1036800000003C0024002400240024002400C40086
:10369000000000000000000000000000000000002A
:1036A00000000000630063006300550055005500F2
:1036B00049000000000000000000000000000000C1
:1036C0000000000000004400440044007C0044006E
:1036D0004400440000000000000000000000000062
:1036E00000000000000000003800440044004400D6
:1036F000440044003800000000000000000000000A
:10370000000000000000000000007C0044004400B5
:103710004400440044004400000000000000000099
:1037200000000000000000000000000058006400DD
:103730004400440044006400580040004000400041
:103740000000000000000000000000000000380041
:1037500044004000400040004400380000000000E9
:103760000000000000000000000000000000000059
:10377000F800200020002000200020002000000091
:103780000000000000000000000000000000000039
:103790000000440044002800280028001000100009
:1037A0001000100060000000000000000000080091
:1037B000080008003E00490049004900490049004E
:1037C0003E000800080008000000000000000000A3
:1037D000000000000000440028002800100028001D
:1037E000280044000000000000000000000000006D
:1037F00000000000000000004400440044004400B9
:10380000440044007E0002000200020000000000AC
:1038100000000000000000000000440044004400DC
:1038200024001C0004000400000000000000000050
:103830000000000000000000000000004440444080
:1038400044404440444044407FC000000000000029
:1038500000000000000000000000000000004440E4
:10386000444044404440444044407FE00020002025
:103870000020000000000000000000000000000028
:103880006000200020003C00220022003C000000DC
:103890000000000000000000000000000000000028
:1038A00000004100410041007900450045007900D9
:1038B0000000000000000000000000000000000008
:1038C0000000000040004000400078004400440038
:1038D0007800000000000000000000000000000070
:1038E0000000000000003800440004001C00040038
:1038F000440038000000000000000000000000004C
:1039000000000000000000004700488048807880E8
:1039100048804880470000000000000000000000D0
:10392000000000000000000000003C0044004400D3
:103930003C0024004400440000000000000000009F
:1039400003161745E0000000000000000000000022
:103950000000000000000000000000000000000067
:103960000000000000000000000000000000000057
:103970000000000000000000000000000000000047
:103980000000000000000000000000000000000037
:103990000030000030000030000030000030000037
:1039A00030000030000030000030000030000030F7
:1039B00000000000003000003000000000000000A7
:1039C00000000000000000000000000000000000F7
:1039D0000000000000006C00006C00006C000000A3
:1039E00000000000000000000000000000000000D7
:1039F00000000000000000000000000000000000C7
:103A000000000000000000000000000000000000B6
:103A100000000000000000000000000CC000088052
:103A200000088000FFE000FFE000198000110000A6
:103A3000110000FFE000FFE0002200002200002251
:103A40000000660000000000000000000000000010
:103A50000000000000000000000000000004000062
:103A60000E00003F800064C0006400006400003C61
:103A700000000F000007800004C00004C00064C004
:103A8000002580003F80000E0000040000040000BC
:103A90000000000000000000000000000000000026
:103AA00000000000001808002408006610006630BE
:103AB00000662000246000184000008C0001920085
:103AC000013300033300023300061200040C00002F
:103AD00000000000000000000000000000000000E6
:103AE000000000000000000000000E00001F0000A9
:103AF0003180003180001100000F00000E00003600
:103B0000000023300061A00060E00030E0003FB022
:103B1000000E000000000000000000000000000097
:103B20000000000000000000000000000000006035
:103B300000006000006000000000000000000000C5
:103B40000000000000000000000000000000000075
:103B50000000000000000000000000000000000065
:103B60000000000000000000000000000000000055
:103B7000000000000000000800001000001000001D
:103B800020000020000020000060000060000060B5
:103B90000000600000200000200000300000100045
:103BA00000100000080000000000000000000000FD
:103BB00000000000000000000000000040000020A5
:103BC000000020000010000010000010000018008D
:103BD000001800001800001800001000001000007D
:103BE0003000002000002000004000000000000025
:103BF00000000000000000000000000000001000B5
:103C0000001000007C0000100000280000000000F0
:103C100000000000000000000000000000000000A4
:103C20000000000000000000000000000000000094
:103C30000000000000000000000000000000000084
:103C40000000000000000000000000000600000668
:103C500000000600000600007FE0007FE000060094
:103C60000006000006000006000000000000000042
:103C70000000000000000000000000000000000044
:103C80000000000000000000000000000000000034
:103C90000000000000000000000000000000000024
:103CA0000000000000000000000000006000006054
:103CB00000002000000000000000000000000000E4
:103CC00000000000000000000000000000000000F4
:103CD00000000000000000000000000000000000E4
:103CE0000000000000F80000F800000000000000E4
:103CF00000000000000000000000000000000000C4
:103D000000000000000000000000000000000000B3
:103D100000000000000000000000000000000000A3
:103D20000000000000000000000000000000000093
:103D30000000000000003000003000000000000023
:103D40000000000000000000000000000000000073
:103D5000000000000000000C000008000008000047
:103D6000180000100000100000300000300000209B
:103D70000000200000600000400000400000C00083
:103D80000000000000000000000000000000000033
:103D90000000000000000000000000000E00003FD6
:103DA000800031800020800060C00060C00060C0E2
:103DB0000060C00060C00060C00020800031800052
:103DC0003F80000E00000000000000000000000026
:103DD00000000000000000000000000000000000E3
:103DE000000200000600000E000016000026000081
:103DF000060000060000060000060000060000069F
:103E000000000600000600000600000000000000A0
:103E100000000000000000000000000000000000A2
:103E20000000000000000E00003F800021800060C4
:103E3000C00000C0000080000180000300000600F8
:103E4000000C00001800003000003FC0007FC000E0
:103E50000000000000000000000000000000000062
:103E600000000000000000000000000E00003F0005
:103E700000218000618000010000060000030000B6
:103E800000800000C00000C00060C0002080003F33
:103E900080000E0000000000000000000000000094
:103EA0000000000000000000000000000000000012
:103EB0000100000300000700000700000B000013D2
:103EC0000000330000630000430000FFC000FFC09B
:103ED00000030000030000030000000000000000D9
:103EE00000000000000000000000000000000000D2
:103EF00000000000003F80003F8000200000200004
:103F0000002000002600003F800060800000C0000C
:103F100000C00060C0002080003F80000E00000054
:103F20000000000000000000000000000000000091
:103F3000000000000000000000000E00001F8000D4
:103F400030800020C0002000006600007F800070EC
:103F5000800060C00060C00020C0003080001F8072
:103F6000000E000000000000000000000000000043
:103F70000000000000000000000000000000007FC2
:103F8000C0007FC0000080000100000300000200AC
:103F9000000600000400000C00000C0000080000F7
:103FA00008000018000018000000000000000000D9
:103FB0000000000000000000000000000000000001
:103FC000000000000E00003F800020800060C00064
:103FD00060C0002080001F00001F000020800060E3
:103FE000C00060C0002080003F80000E0000000084
:103FF00000000000000000000000000000000000C1
:104000000000000000000000000E00003F00002043
:10401000800060800060C00060C00021C0003FC020
:10402000000CC0000080006080002180003F000084
:104030000E00000000000000000000000000000072
:104040000000000000000000000000000000000070
:104050000000000000000000000030000030000000
:104060000000000000000000000000000000000050
:1040700000003000003000000000000000000000E0
:104080000000000000000000000000000000000030
:1040900000000000000000000000000000000030F0
:1040A00000003000000000000000000000000000E0
:1040B0000000000000000030000030000010000090
:1040C00000000000000000000000000000000000F0
:1040D00000000000000000000000000000000000E0
:1040E0000000000001C00007000018000060000090
:1040F00018000007000001C00000000000000000E0
:1041000000000000000000000000000000000000AF
:10411000000000000000000000000000000000009F
:104120000000000000000000007FC0007FC0000011
:1041300000000000007FC0007FC000000000000001
:10414000000000000000000000000000000000006F
:10415000000000000000000000000000000000005F
:1041600000000000000000000000000000007000DF
:10417000001C000003000000C0000300001C000041
:1041800070000000000000000000000000000000BF
:10419000000000000000000000000000000000001F
:1041A000000000000000000E00003F800031800091
:1041B00060C00000C0000180000300000600000491
:1041C00000000C00000C00000000000C00000C00BF
:1041D00000000000000000000000000000000000DF
:1041E00000000000000000000000000000F80003D4
:1041F000FE000E03801801C01066C031F440230C8D
:1042000060220C606608606608406608C06219801B
:1042100023FF00318C001800400E018007FF0000D2
:10422000F800000000000000000000000000000096
:10423000000700000700000500000D800008800056
:1042400018C00018C0001040003FE0003FE00060D0
:104250003000603000401000C01800000000000076
:10426000000000000000000000000000000000004E
:104270000000000000003F80003FC00030600030C0
:1042800060003060003040003F80003FC000306080
:10429000003030003030003020003FE0003F800030
:1042A000000000000000000000000000000000000E
:1042B00000000000000000000000000380000FE08C
:1042C0000018300030100020000060000060000086
:1042D0006000006000002018003010001820001F4F
:1042E000C000070000000000000000000000000007
:1042F00000000000000000000000000000000000BE
:104300003F80003FE000303000303000301000309F
:10431000180030180030180030180030100030300D
:10432000003030003FE0003F80000000000000004F
:10433000000000000000000000000000000000007D
:1043400000000000003FF0003FF0003000003000AF
:10435000003000003000003FE0003FE0003000008F
:104360003000003000003000003FF0003FF000005F
:10437000000000000000000000000000000000003D
:10438000000000000000000000003FE0003FE000EF
:104390003000003000003000003000003FC0003F1F
:1043A000C00030000030000030000030000030005D
:1043B00000300000000000000000000000000000CD
:1043C00000000000000000000000000000000003EA
:1043D000C0000FF000181800300800200000600036
:1043E0000060000060FC0060FC00200C00300C004D
:1043F000181C000FF80003C00000000000000000BF
:1044000000000000000000000000000000000000AC
:10441000000000006030006030006030006030005C
:104420006030006030007FF0007FF000603000609E
:10443000300060300060300060300060300000000C
:10444000000000000000000000000000000000006C
:1044500000000000000000000030000030000030CC
:10446000000030000030000030000030000030005C
:10447000003000003000003000003000003000004C
:1044800030000000000000000000000000000000FC
:104490000000000000000000000000000000030019
:1044A00000030000030000030000030000030000FD
:1044B000030000030000030000030000630000622B
:1044C00000003E00001C0000000000000000000092
:1044D00000000000000000000000000000000000DC
:1044E00000000030600030C00031C0003180003377
:1044F00000003600003E00003F0000330000318025
:104500000030C0003060003070003030000000002B
:10451000000000000000000000000000000000009B
:1045200000000000000000003000003000003000FB
:10453000003000003000003000003000003000008B
:104540003000003000003000003000003FC0003F6D
:10455000C00000000000000000000000000000009B
:104560000000000000000000000000000040040007
:10457000701C00783C00682C00682C006C6C006C8F
:104580006C00644C00644C0066CC00628C00638C50
:1045900000638C00638C000000000000000000003D
:1045A000000000000000000000000000000000000B
:1045B00000006030007030007030006830006C30F7
:1045C0000064300066300063300061300061B0008C
:1045D00060B000607000607000603000000000009B
:1045E00000000000000000000000000000000000CB
:1045F000000000000000000380000FE00018300001
:10460000301800200800600C00600C00600C006096
:104610000C002008003018001830000FE000038064
:10462000000000000000000000000000000000008A
:104630000000000000000000000000003F80003F7C
:10464000E00030600030300030300030300030604A
:10465000003FE0003F8000300000300000300000EC
:1046600030000030000000000000000000000000EA
:10467000000000000000000000000000000000003A
:10468000000380000FE00018300030180020080000
:10469000600C00600C00600C00600C002008003012
:1046A00098001870000FF000038800000000000060
:1046B00000000000000000000000000000000000FA
:1046C0000000000000003FC0003FE000303000303C
:1046D00030003030003030003FE0003FC00030801C
:1046E0000030C0003060003060003030003010001A
:1046F00000000000000000000000000000000000BA
:1047000000000000000000000000000780001FE023
:10471000001060003030003000001800000F000072
:1047200000E0000020006030002030003060001FFA
:10473000E000078000000000000000000000000012
:104740000000000000000000000000000000000069
:104750007FE0007FE0000600000600000600000683
:10476000000006000006000006000006000006002B
:104770000006000006000006000000000000000027
:104780000000000000000000000000000000000029
:1047900000000000006030006030006030006030D9
:1047A0000060300060300060300060300060300039
:1047B0006030002020003060003FC0000700000093
:1047C00000000000000000000000000000000000E9
:1047D00000000000000000000000C01800C0180029
:1047E0004010006030002020003060001060001099
:1047F000400018C0000880000D8000050000070080
:1048000000070000000000000000000000000000A1
:10481000000000000000000000000000000000C0D8
:10482000E06040E04040A04041B0406110C06110F5
:10483000C0231880231880220880320980360D801A
:104840001405001C07001C07000000000000000009
:104850000000000000000000000000000000000058
:104860000000000030600030600018C0000D8000C3
:104870000D80000700000200000700000D800018F6
:10488000C00018C0003060006030006030000000E0
:104890000000000000000000000000000000000018
:1048A00000000000000000000040200060600030B8
:1048B000C00030C0001980000900000F0000060091
:1048C00000060000060000060000060000060000CA
:1048D00006000000000000000000000000000000D2
:1048E00000000000000000000000000000007FE069
:1048F000007FC00000C00001800001000002000035
:104900000600000C000008000010000030000060ED
:1049100000007FE000FFE000000000000000000059
:104920000000000000000000000000000000000087
:104930000000007800007800006000006000006067
:104940000000600000600000600000600000600087
:104950000060000060000060000060000060000077
:1049600060000078000078000000000000000000F7
:104970000000000000000000C000004000004000F7
:104980000060000020000020000030000030000027
:104990001000001000001800000800000800000CC3
:1049A0000000000000000000000000000000000007
:1049B00000000000000000000000000000F0000007
:1049C000F000003000003000003000003000003007
:1049D00000003000003000003000003000003000E7
:1049E00000300000300000300000300000F0000017
:1049F000F0000000000000000000000000000000C7
:104A000000001000001000002800002800004400F2
:104A100000440000C600000000000000000000008C
:104A20000000000000000000000000000000000086
:104A30000000000000000000000000000000000076
:104A40000000000000000000000000000000000066
:104A50000000000000000000000000000000000056
:104A60000000000000000000000000000000000046
:104A700000000000000000FFE000FFE00000000078
:104A800000000000000000000000000020000020E6
:104A90000000100000000000000000000000000006
:104AA0000000000000000000000000000000000006
:104AB00000000000000000000000000000000000F6
:104AC00000000000000000000000000000000000E6
:104AD000000000000000000000000000000E0000C8
:104AE0003F00006180000380003F80003180006152
:104AF00080006380003F80001C80000000000000F8
:104B000000000000000000000000000000000000A5
:104B10000000000000006000006000006000006015
:104B200000006600006F800071800060C00060C0FF
:104B30000060C00060C0007180006F8000660000EF
:104B40000000000000000000000000000000000065
:104B50000000000000000000000000000000000055
:104B6000000000000000000E00003F000031800047
:104B70006000006000006000006000003180003FC5
:104B800000000E0000000000000000000000000017
:104B90000000000000000000000000000000000015
:104BA00000C00000C00000C00000C0000CC0003EFB
:104BB000C00031C00060C00060C00060C00060C0C4
:104BC0000031C0003EC0000CC0000000000000002A
:104BD00000000000000000000000000000000000D5
:104BE00000000000000000000000000000000000C5
:104BF000000E00003F80003180006080007FC00018
:104C00007FC0006000003080003F80000E00000088
:104C10000000000000000000000000000000000094
:104C2000000000000000000000000C00001C00005C
:104C30003000003000007C00007C000030000030BC
:104C40000000300000300000300000300000300074
:104C50000030000000000000000000000000000024
:104C60000000000000000000000000000000000044
:104C700000000000000000000000000EC0003FC067
:104C80000031C00060C00060C00060C00060C000B3
:104C900031C0003FC0000EC00000C0006080003F77
:104CA00080001E0000000000000000000000000066
:104CB0000000000060000060000060000060000074
:104CC0006600006F000071800061800061800061FB
:104CD00080006180006180006180006180000000D0
:104CE00000000000000000000000000000000000C4
:104CF00000000000000000000060000060000000F4
:104D00000000000000600000600000600000600023
:104D100000600000600000600000600000600000B3
:104D20006000000000000000000000000000000023
:104D30000000000000000000000000000000600013
:104D40000060000000000000000060000060000043
:104D50006000006000006000006000006000006013
:104D60000000600000600000600000600000C00003
:104D700000C0000000000000000000000000000073
:104D80000000006000006000006000006000006142
:104D900000006300006600006C00007C00006C00F6
:104DA0000066000066000063000061000000000073
:104DB00000000000000000000000000000000000F3
:104DC00000000000000000006000006000006000C3
:104DD00000600000600000600000600000600000F3
:104DE0006000006000006000006000006000006083
:104DF00000000000000000000000000000000000B3
:104E000000000000000000000000000000000000A2
:104E10000000000000000000006618006F7C0071B8
:104E2000C600618600618600618600618600618639
:104E300000618600618600000000000000000000A4
:104E40000000000000000000000000000000000062
:104E500000000000000000000000000000006600EC
:104E6000007F00007180006180006180006180002F
:104E700061800061800061800061800000000000AE
:104E80000000000000000000000000000000000022
:104E90000000000000000000000000000000000012
:104EA0000000000E00003F800031800060C0006004
:104EB000C00060C00060C0003180003F80000E0074
:104EC00000000000000000000000000000000000E2
:104ED00000000000000000000000000000000000D2
:104EE00000000000000000006600006F800071807C
:104EF0000060C00060C00060C00060C00071800041
:104F00007F800066000060000060000060000060BC
:104F10000000000000000000000000000000000091
:104F2000000000000000000000000000000CC000B5
:104F30003EC00031C00060C00060C00060C00060C2
:104F4000C00031C0003FC0000CC00000C00000C065
:104F50000000C00000C000000000000000000000D1
:104F60000000000000000000000000000000000041
:104F700000006C000078000060000060000060002D
:104F80000060000060000060000060000060000041
:104F90000000000000000000000000000000000011
:104FA0000000000000000000000000000000000001
:104FB000000000000000001E00003F0000618000B3
:104FC0006000003C00000700000180006180003F9D
:104FD00000001E00000000000000000000000000B3
:104FE00000000000000000000000000000000000C1
:104FF000000000200000600000600000F80000F8E1
:1050000000006000006000006000006000006000C0
:105010000060000078000038000000000000000080
:105020000000000000000000000000000000000080
:105030000000000000000000000000000000000070
:1050400000618000618000618000618000618000FB
:105050006180006180006380003D80001980000055
:105060000000000000000000000000000000000040
:105070000000000000000000000000000000000030
:10508000000000000000C1800041000041000063FA
:1050900000002200002200001400001C00001C0080
:1050A00000080000000000000000000000000000F8
:1050B00000000000000000000000000000000000F0
:1050C0000000000000000000000000C21800C2182C
:1050D00000C7100045100065100068A00028A0005F
:1050E00038E00038E0001040000000000000000040
:1050F00000000000000000000000000000000000B0
:10510000000000000000000000000000000000009F
:105110004100006300002200001400001C00001C7D
:1051200000001C000022000063000041000000009D
:10513000000000000000000000000000000000006F
:10514000000000000000000000000000000000005F
:105150000000000000C18000410000610000230049
:10516000002200001200001600000E00000C0000DB
:105170000C00000C00001800007800006000000027
:10518000000000000000000000000000000000001F
:10519000000000000000000000007F80007F800011
:1051A0000380000600000C0000380000700000E0E2
:1051B0000000FF8000FF80000000000000000000F1
:1051C00000000000000000000000000000000000DF
:1051D0000000000C00001C00003000003000003017
:1051E0000000300000300000200000C00000C000BF
:1051F00000200000300000300000300000300000CF
:105200003000001C00000C00000000000000000046
:1052100000000000000000003000003000003000FE
:10522000003000003000003000003000003000008E
:10523000300000300000300000300000300000304E
:10524000000030000030000030000030000000009E
:1052500000000000000000000000000000C000008E
:10526000E00000300000300000300000300000306E
:1052700000001000000C00000C00001000003000C6
:1052800000300000300000300000300000E000007E
:10529000C00000000000000000000000000000004E
:1052A00000000000000000000000000000000000FE
:1052B000000000001000003C40004780000100009A
:1052C00000000000000000000000000000000000DE
:1052D00000000000000000000000000000000000CE
:1052E00000000000000000000000000000000000BE
:1052F00000000000000000000000000000000000AE
:10530000000000000000000000000000000000009D
:10531000000000000000000000000000000000008D
:105320000000000000000000000000007FE0007F9F
:10533000E00006000006000006000006700007FC02
:1053400000060C00060600060600060600060C0015
:10535000067C000630000000000000000000000095
:105360000000000000010000010000020000000039
:10537000003FC0003FC0003000003000003000009F
:1053800030000030000030000030000030000030FD
:10539000000030000030000030000000000000007D
:1053A00000000000000000000000000000000000FD
:1053B00000000000000000000000000000000000ED
:1053C00000000000000000000000000000000000DD
:1053D000000000000000000000006000006000000D
:1053E000200000000000000000000000000000009D
:1053F000000000000000000000000008000008009D
:10540000001000000000007E00007E000060000030
:10541000600000600000600000600000600000604C
:10542000000060000000000000000000000000001C
:10543000000000000000000000000000000000006C
:10544000000000000000000000000000000000005C
:10545000000000000000000000000000000000004C
:10546000000000006C00006C000024000000000040
:10547000000000000000000000000000000000002C
:10548000000000000000000000000000000000001C
:10549000000000000000000000000000000000000C
:1054A00000000000000000000030C30030C3000016
:1054B00000000000000000000000000000000000EC
:1054C00000000000000000000000060000060000D0
:1054D0000600000600007FE0007FE00006000006F6
:1054E000000006000006000006000006000006009E
:1054F0000006000006000006000006000000000094
:105500000000000000000000000000000000000695
:1055100000000600000600000600007FE0007FE0BB
:10552000000600000600000600000600000600005D
:105530007FE0007FE0000600000600000600000695
:10554000000000000000000000000000000000005B
:10555000000000000380000FC000180000300000B1
:10556000200000200000FF8000600000FF8000207D
:1055700000003000001800001FC000038000000081
:10558000000000000000000000000000000000001B
:10559000000000000000000000210000530000DBBC
:1055A0000000DA0000DE00005E000024000004823B
:1055B000000D45000F6D800B6D801B6D801945003F
:1055C00010C3000000000000000000000000000008
:1055D00000000000000000000000000000003FE0AC
:1055E000003FE0003060003060003060003060005C
:1055F000307F00307FC030604030606030606030AD
:105600006040E07FC0407F0000000000000000001C
:10561000000000000000000000000000000000008A
:105620000000000000000000000000000000000872
:1056300000001800001000002000006000002000A2
:10564000001000001800000800000000000000002A
:10565000000000000000000000000000000000004A
:10566000000000000000000030C00030C00030C06A
:105670000030C00030C00030C0003FFE003FFF805F
:1056800030C0C030C0C030C0C030C08030FF8030BB
:10569000FE0000000000000000000000000000000C
:1056A0000002000002000004000000000030600062
:1056B00030E0003180003100003300003200003C57
:1056C00000003200003300003100003080003080E4
:1056D00000304000304000000000000000000000EA
:1056E00000000000000000000000000000000000BA
:1056F0000000FFC000FFC0000C00000C00000C0008
:10570000000CE0000FF8000C18000C0C000C0C0052
:105710000C0C000C0C000C0C000C0C000000000029
:105720000000000000000000000000000000000079
:105730000000000000000030300030300030300049
:105740003030003030003030003030003030003049
:1057500030003030003030003030003FF0003FF09B
:10576000000300000300000300000300000000002D
:10577000000000000000000000000000600000FCCD
:105780000000FC00006000006600007F00007180E7
:1057900000618000618000618000618000618000A4
:1057A00061800061800001800001800001800003B1
:1057B00000000000000000000000000000000000E9
:1057C00000000000000000400000600000600000D9
:1057D00000000000000000000000000000000000C9
:1057E00000000000000000000000000000000000B9
:1057F00000000000000000000000000000000000A9
:1058000000000000000060000060000020000000B8
:105810000000000000000000000000000000000088
:105820000000000000000000000000000000000078
:105830000000000000000000000000000000000068
:105840000000000000000000000000000000000058
:10585000004800006C00006C000000000000000028
:105860000000000000000000000000000000000038
:105870000000000000000000000000000000000028
:105880000000000000000000000000000000000018
:105890006C00006C0000240000000000000000000C
:1058A00000000000000000000000000000000000F8
:1058B00000000000000000000000000000000000E8
:1058C00000000000000000000000000000000000D8
:1058D00000000000000000000000000000000000C8
:1058E000000000001000003800007C0000380000BC
:1058F0001000000000000000000000000000000098
:105900000000000000000000000000000000000097
:105910000000000000000000000000000000000087
:105920000000000000000000000000000000000077
:105930000000FFE000FFE0000000000000000000A9
:105940000000000000000000000000000000000057
:105950000000000000000000000000000000000047
:105960000000000000000000000000000000000037
:1059700000000000000000FFFFE0FFFFE00000006B
:105980000000000000000000000000000000000017
:105990000000000000000000000000000000000007
:1059A00000000000000000000000000000000000F7
:1059B00000000000000000000000000000000000E7
:1059C00000000000000000000000000000000000D7
:1059D00000000000000000000000000000000000C7
:1059E0000000000000000000003EC60008C60008DD
:1059F000820008820008AA0008820008920008922B
:105A00000000000000000000000000000000000096
:105A10000000000000000000000000000000000086
:105A20000000000000000000000000000000000076
:105A3000000000000000000000003FC0003FC00068
:105A400030C00030FC0030FE0030C30030C30030F6
:105A5000C300F0FE00E0FC000000000000000000B9
:105A60000000000000000000000000000000000036
:105A700000000000000000000000000000000040E6
:105A8000000060000020000010000018000010005E
:105A90000020000060000040000000000000000046
:105AA00000000000000000000000000000000000F6
:105AB00000000000000000000000000000000000E6
:105AC000000000006300006300006300006300004A
:105AD0007FF0007FF800630C00630C0063F8006344
